:020000040800F2
:100000000090002015130008B90E0008B70E000874
:1000100000000000000000000000000000000000E0
:10002000000000000000000000000000BB0E0008FF
:10003000000000000000000019020008C50B0008C5
:10004000BD0E0008BF0E000845080008C10E0008DC
:10005000C30E0008F90E0008210F0008490F000820
:10006000C50E0008251000083D10000865100008A6
:10007000E10E00080D1100086D0C000825110008A4
:100080003D110008651100087D1100089511000858
:10009000AD110008C5110008DD110008F5110008B8
:1000A0000D120008351200084D12000875120008E4
:1000B0008D120008B5120008DD0E0008DF0E0008E2
:100200004F50454E484C00000000000867040000B5
:0402100000000000EA
:10021800EFF3108372B6EFF309801038F0C044464C
:100228004D4656465F462038F0C01038094A1168D6
:100238000860094A11680868F0C8A046A946B2468D
:10024800BB46F0C880F30988BFF36F8F83F310882B
:1002580002480047D4090020D0090020FDFFFFFF15
:10026800002243088B4274D303098B425FD3030AED
:100278008B4244D3030B8B4228D3030C8B420DD300
:10028800FF22090212BA030C8B4202D3121209028E
:1002980065D0030B8B4219D300E0090AC30B8B42CC
:1002A80001D3CB03C01A5241830B8B4201D38B037A
:1002B800C01A5241430B8B4201D34B03C01A52411F
:1002C800030B8B4201D30B03C01A5241C30A8B4262
:1002D80001D3CB02C01A5241830A8B4201D38B024D
:1002E800C01A5241430A8B4201D34B02C01A5241F1
:1002F800030A8B4201D30B02C01A5241CDD2C30963
:100308008B4201D3CB01C01A524183098B4201D3DE
:100318008B01C01A524143098B4201D34B01C01AC9
:10032800524103098B4201D30B01C01A5241C30841
:100338008B4201D3CB00C01A524183088B4201D3B0
:100348008B00C01A524143088B4201D34B00C01A9C
:100358005241411A00D20146524110467047FFE708
:1003680001B5002000F0F0F802BDC0460029F7D022
:1003780076E7704703460B437FD4002243088B423D
:1003880074D303098B425FD3030A8B4244D3030B14
:100398008B4228D3030C8B420DD3FF22090212BAD9
:1003A800030C8B4202D31212090265D0030B8B4255
:1003B80019D300E0090AC30B8B4201D3CB03C01A3F
:1003C8005241830B8B4201D38B03C01A5241430B1A
:1003D8008B4201D34B03C01A5241030B8B4201D30A
:1003E8000B03C01A5241C30A8B4201D3CB02C01A75
:1003F8005241830A8B4201D38B02C01A5241430AED
:100408008B4201D34B02C01A5241030A8B4201D3DB
:100418000B02C01A5241CDD2C3098B4201D3CB0182
:10042800C01A524183098B4201D38B01C01A524131
:1004380043098B4201D34B01C01A524103098B4235
:1004480001D30B01C01A5241C3088B4201D3CB0020
:10045800C01A524183088B4201D38B00C01A524103
:1004680043088B4201D34B00C01A5241411A00D2B3
:1004780001465241104670475DE0CA0F00D049421C
:10048800031000D34042534000229C4603098B428C
:100498002DD3030A8B4212D3FC22890112BA030A14
:1004A8008B420CD3890192118B4208D38901921196
:1004B8008B4204D389013AD0921100E08909C3091B
:1004C8008B4201D3CB01C01A524183098B4201D31D
:1004D8008B01C01A524143098B4201D34B01C01A08
:1004E800524103098B4201D30B01C01A5241C30880
:1004F8008B4201D3CB00C01A524183088B4201D3EF
:100508008B00C01A5241D9D243088B4201D34B0009
:10051800C01A5241411A00D20146634652415B104B
:10052800104601D34042002B00D54942704763462C
:100538005B1000D3404201B5002000F005F802BD71
:100548000029F8D016E770477047C046914003006D
:1005580090409C46203A9340194352426346D34008
:10056800194370470448054B10B5834203D0044B28
:10057800002B00D0984710BDAC010020AC01002032
:100588000000000006480749091A8B10C90FC9184E
:1005980010B5491003D0044B002B00D0984710BD6C
:1005A800AC010020AC0100200000000010B5074C91
:1005B8002378002B09D1FFF7D5FF054B002B02D07C
:1005C800044800E000BF0123237010BDB0010020E3
:1005D8000000000000430008054B10B5002B03D0B5
:1005E8000449054800E000BFFFF7CCFF10BDC04636
:1005F80000000000B40100200043000870B50400AA
:1006080015000E0000F086FB6268214B5A61A26853
:100618001A612278102A29D0202A29D0082A01D143
:1006280092189A60227B102A24D0202A25D0082AE2
:1006380003D1996818320A439A60627B9968D2019B
:100648000A4301210A439A60BFF34F8F7519AE42DE
:1006580016D1186823695840237D002B05D02378CC
:10066800102B11D0202B00D100BA70BD0822D8E77A
:100678000022D6E740229968DDE760229968DAE728
:10068800327801361A70E2E740BA80B2EDE7C04628
:10069800003002408023084A5B02C3188018DB023E
:1006A800C0021A68013204D104338342F9D101200F
:1006B80070470020FCE7C04601000100E0220A4B19
:1006C800D202196908001040114209D15A69002A5A
:1006D80005DA064A9A60064A9A605869C00F704758
:1006E800BFF34F8FEDE7C046002002402301674566
:1006F800AB89EFCD0B4B0C4A18691A61E022D20284
:10070800196911420AD18022596912060A435A61AD
:10071800064B1840431E9841C0B27047BFF34F8F35
:10072800EEE7C04600200240FB430000FA43000009
:10073800204B10B51B6804009B05DB0D834201D8D4
:10074800012010BDFFF7BAFF0028F9D11A4B1B4A48
:100758001B491A615A690A40FE215A618900E20060
:100768000A407F21A1428941494249030A430221A3
:10077800586902430A435A618022596952020A435E
:100788005A61E022D2021969114210D102215A6934
:100798008A435A61BFF34F8FFFF7ACFF0028CFD1D0
:1007A8002000FFF777FF01235840C0B2C9E7BFF325
:1007B8004F8FE8E7E075FF1F00200240FB43000071
:1007C80007C0FFFF094B10B51B6804009B050120FB
:1007D800DB0DA34209D92000FFF75CFF03000020CE
:1007E800834202D12000FFF7A3FF10BDE075FF1F71
:1007F80080235B02C018C002401870470068704729
:1008080070B504000D00FFF793FF002813D1802373
:100818005B02E41880231B01E402EE182900200083
:1008280003F076FD002806D101350134FF35FF3489
:10083800B542F3D170BD0120FCE7000001220E4B48
:10084800196D114202D00D49DA650A700222196D3C
:10085800114203D00121DA65094A11700422196D89
:10086800114203D0DA65074B033A1A70C0230421FA
:10087800054A5B00D150704700280040CE01002097
:10088800CD010020CC01002000E100E0F0B5D1B09E
:1008980001900F000F200021FFF7AAFF0600203E5D
:1008A80033001A78FF2A28D101338342F9D1002076
:1008B80051B0F0BD00F0F2FA80233A1B1B019A42B6
:1008C80000D91A00019B1AA8E11801F017F9802332
:1008D8001B01E418BC42EDD30AA91AA801F014F9C7
:1008E8000AA902A803F098FB3100280002AA03F025
:1008F800A5FB43425841C0B2DAE73D00019B0835E9
:10090800ED181AA801F0A8F8202229001AA801F069
:10091800F5F8202231001AA801F0F0F80024D9E7F0
:10092800F7B52F4F05003B680E009B050192DB0DC4
:10093800834202D802221000FEBD0021FFF758FFB3
:10094800802292008418274B226800909A42F1D1A5
:10095800852362689B009A42ECD93B689B05DB0DB6
:100968005B1BDB02483B9A42E4D803231100194081
:100978001A42DFD11020A568FFF73AFF042285420A
:10098800D9D18021184A0905D56BD36BE0680B4390
:10099800D363164B1B681B051B0D0D4203D1D16B8E
:1009A800134D2940D16303229842C4D1114862688B
:1009B8000099FFF723FE009B050060681818FFF7F1
:1009C8001DFFA842B6D1002E01D063683360019B99
:1009D800002B01D10022AEE7019B1D60FAE7C0465B
:1009E800E075FF1F4F50454E00100240005801406F
:1009F800FFFFFFF72843000813B5040069461020DD
:100A080001AAFFF78DFF03000020834208D1626826
:100A1800009B9A4204D1019BE068C01A43425841A6
:100A280016BD002373B50D0001A906000193FFF759
:100A380077FF041E09D101003000FFF7D9FE0199A4
:100A4800FFF724FFA04200D10534002D01D0019BFF
:100A58002B60200076BD0000F0B585B000F016FAD6
:100A680000210F20FFF7C4FE494B026805009A4297
:100A780015D00024474B484A102014C30022110007
:100A8800FFF7CFFF0024A04204D121001020FFF778
:100A9800AFFE040000F0FEF9200005B0F0BD80684C
:100AA8000F280CD802242800FFF7A6FF002C6BD1D2
:100AB800A04233D001240F20FFF784FEDAE7374B3A
:100AC8001B689B05DB0D9842ECD280B203AA02A9F1
:100AD800FFF7A7FF041EE6D16A68029B9A42E1D19C
:100AE800EA68039B9A42DDD1020001001020FFF75B
:100AF80098FFA042D7D128892100802780B2FFF72C
:100B080077FEBF00C019066921001020FFF770FEAC
:100B1800C01903699E42C6D20634C4E76A46AB6868
:100B28006C6801931E4B9288E418E40AA3B20F3351
:100B380093429EDA1020FFF745FEA4B2002800D0A9
:100B480097E7002C05D12800FFF756FF0028B1D100
:100B58008FE700F0A3F9661E019BB6B29819002131
:100B680080B2FFF745FE80220E4F010012013800C7
:100B78000F3403F08FFB3900A0B2FFF741FE0028C5
:100B880000D076E73400DCE7002893D193E7C0462D
:100B9800424F4F540000002052505254E075FF1F3E
:100BA80047080000D00100200349036842688860B4
:100BB80083F308881047FEE700ED00E030B5002514
:100BC800012403490A684B6812196B410CC130BDF6
:100BD800D809002070470000382210B51C4CA368C3
:100BE8001340182B2FD009D8082B2FD0102B0AD040
:100BF800236818489B045B0FD84018E0202BF7D1D6
:100C08008020000213E0E368E168DB434906490FEE
:100C180001319B0715D11048FFF722FBE368E16813
:100C28005B045B0E490F58430131FFF719FBA368BA
:100C38000A4A1B051B0F9B009B580949D8400860AE
:100C480010BD0448E8E7FA20C001F0E70248EEE7E3
:100C5800001002400024F40000127A00404300080B
:100C6800D00000201F22064B524210B51A61054BD6
:100C78001B68002B02D0044A1068984710BDC04674
:100C8800002C0140E4090020E0090020094A022361
:100C9800904203D8084B83429B415B420720074997
:100CA8000A6882431A430A600A6802409A42FBD1E2
:100CB8007047C046006CDC0200366E01002002401E
:100CC800104B11491A68C0020A40802102434900AA
:100CD8000A4310B51A608022D20019681142FCD06C
:100CE80007219A688A439A60382299681142FCD190
:100CF8001A6806490A401A60FFF76EFF044B186825
:100D080010BDC04600100240FFC7FFFFFFFFFEFEF8
:100D1800D00000208023034A5B01916B0B4393634F
:100D28007047C0460010024080220E4B52021968DC
:100D38000A431A608022920219681142FCD00722E5
:100D480099689143063A0A4338219A609A680A409A
:100D5800082AFBD11A6804490A401A60034B186034
:100D68007047C04600100240FFFFFFFED000002081
:100D7800F7B50600081C082951D90820C1B201910D
:100D8800151C562A50D95625EDB21C1C082B50D9D3
:100D980008240199E4B2002E50D03000FFF760FA21
:100DA80021006843FFF75CFA07003000FFF7BCFF3B
:100DB8003800FFF76BFF274B27491A680A401A606B
:100DC8008022920419681142FCD1019A6408013CFE
:100DD80064072D02013A12012C431443721E9641F6
:100DE80080220236264352053243DA60802219688F
:100DF80052040A431A608022920419681142FCD0F6
:100E0800072299689143053A0A4338219A609A68FB
:100E18000A40102AFBD1114B38001F60FEBDC9B231
:100E28000029ABD10120A9E7D2B2082AACD2082503
:100E3800AAE7DBB2022BACD20224AAE70848FFF7E4
:100E480099FA21006843FFF795FA07003000FFF789
:100E580037FFADE700100240FFFFFFFED000002083
:100E68000024F40010B50020FFF72AFF0400024810
:100E7800FFF70CFF200010BD0024F400022310B57A
:100E8800102219000020FFF773FF10BD10B5FFF7FF
:100E9800F5FF10BD10B5FFF7E5FF10BD014B024A85
:100EA8001A60704700300040AAAA00007047FEE7A9
:100EB800FEE7FEE7FEE7FEE7FEE7FEE710B5034BB9
:100EC800034A1B681068984710BDC046D40000202C
:100ED800E8090020FEE7FEE710B5034B034A1B684C
:100EE8001068984710BDC046A8010020BC0A002021
:100EF800054A064B10B51B6810689847044B054A0D
:100F08001B681068984710BDB80A0020A40100208B
:100F1800A0010020B40A0020054A064B10B51B6842
:100F280010689847044B054A1B681068984710BD1D
:100F3800B00A00209C01002098010020AC0A002083
:100F48001E4A1F4B10B51B68106898471D4A1E4B58
:100F58001B68106898471D4A1D4B1B681068984706
:100F68001C4A1D4B1B68106898471C4A1C4B1B6881
:100F7800106898471B4A1C4B1B68106898471B4A07
:100F88001B4B1B68106898471A4A1B4B1B68106854
:100F980098471A4A1A4B1B6810689847194A1A4BFF
:100FA8001B6810689847194A194B1B6810689847BE
:100FB800184B194A1B681068984710BDA80A0020EA
:100FC80094010020A40A002090010020A00A00201B
:100FD8008C0100209C0A002088010020980A00202B
:100FE80084010020940A002080010020900A00203B
:100FF8007C0100208C0A002078010020880A00204B
:1010080074010020840A002070010020800A00205A
:101018006C010020680100207C0A002010B5034BF9
:10102800034A1B681068984710BDC0466401002039
:10103800780A0020054A064B10B51B6810689847C7
:10104800044B054A1B681068984710BD740A0020B5
:10105800600100205C010020700A0020174A184B2C
:1010680010B51B6810689847164A174B1B6810681C
:101078009847164A164B1B6810689847154A164B2E
:101088001B6810689847154A154B1B6810689847E5
:10109800144A154B1B6810689847144A144B1B6870
:1010A80010689847134A144B1B6810689847134BED
:1010B800134A1B681068984710BDC0466C0A002088
:1010C80058010020680A002054010020640A00200A
:1010D80050010020600A00204C0100205C0A00201A
:1010E80048010020580A002044010020540A00202A
:1010F80040010020500A00203C0100203801002057
:101108004C0A002010B5034B034A1B681068984727
:1011180010BDC04634010020480A002010B5034B1A
:10112800034A1B681068984710BDC046300100206C
:10113800440A0020054A064B10B51B6810689847FA
:10114800044B054A1B681068984710BD400A0020E8
:101158002C010020280100203C0A002010B5034B78
:10116800034A1B681068984710BDC0462401002038
:10117800380A002010B5034B034A1B6810689847CB
:1011880010BDC04620010020340A002010B5034BD2
:10119800034A1B681068984710BDC0461C01002010
:1011A800300A002010B5034B034A1B6810689847A3
:1011B80010BDC046180100202C0A002010B5034BB2
:1011C800034A1B681068984710BDC04614010020E8
:1011D800280A002010B5034B034A1B68106898477B
:1011E80010BDC04610010020240A002010B5034B92
:1011F800034A1B681068984710BDC0460C010020C0
:10120800200A0020054A064B10B51B68106898474D
:10121800044B054A1B681068984710BD1C0A00203B
:101228000801002004010020180A002010B5034B13
:10123800034A1B681068984710BDC046000100208B
:10124800140A0020054A064B10B51B681068984719
:10125800044B054A1B681068984710BD100A002007
:10126800FC000020F80000200C0A002010B5034BF9
:10127800034A1B681068984710BDC046F400002058
:10128800080A0020054A064B10B51B6810689847E5
:10129800044B054A1B681068984710BD040A0020D3
:1012A800F0000020D8000020EC0900200D4A0E4B69
:1012B80010B51B68106898470C4A0D4B1B681068DE
:1012C80098470C4A0C4B1B68106898470B4A0C4B04
:1012D8001B68106898470B4B0B4A1B6810689847A7
:1012E80010BDC046000A0020EC000020FC090020C8
:1012F800E8000020F8090020E4000020F40900209C
:10130800E0000020DC000020F00900200C4B0D4A12
:1013180010B50D4993600D4A0D4B8B420BD300213C
:101328000C4B0D4A934209D3FFF754FC02F08EFF91
:1013380002F07AFFFEE701CA01C3EEE702C3F1E754
:101348000000000800ED00E0AC010020A44A0008FD
:1013580008000020B0010020C00A0020F0B50025D8
:10136800D200954200D1F0BD4C1963784E5D1B0246
:101378003343A678677936041E43E3783F021B0699
:10138800334326791BBA3743A679E47936043E43BA
:101398002406344324BA4619346073600835E0E7FC
:1013A800F0B503684468BBB0169317948368C468A3
:1013B80018931994036944691A931B948369C4693F
:1013C8001C931D94036A446A1E931F94836AC46A1B
:1013D80020932194036B446B22932394836BC46BF7
:1013E8002A902493259410931194229B239C0C9368
:1013F8000D94209B219C0A930B941E9B1F9C009389
:1014080001941C9B1D9C0E930F941A9B1B9C089384
:101418000994189B199C06930794169B179C029392
:101428000394684B00249C466346E2182A9B03CA2F
:101438001B191A6C5B6C80185941019B019D9A0419
:10144800009BAD0B9B0BD218009B019F9B045B1963
:10145800019DBF0CAE03009D0834AD0C7619009DAC
:101468007240AD03ED196B40019D019F6E0A009D0E
:10147800FF05ED057619009D72406D0AED196B4068
:1014880012921393129A139B12184B4100990C98BD
:10149800009D88430A9929404840149001990D9865
:1014A800019D88430B992940484015901498159937
:1014B80012184B411098119980185941039B9A08AA
:1014C800029B9B07D218029B039D9B08AD075B19E3
:1014D800039D039F2E01029D3F0F2D0F7619029D3C
:1014E80072402D01ED196B40039D039FEE09029D8B
:1014F8007F066D067619029D7240ED09ED196B4065
:1015080026922793069A089B099D5A40029B069E9D
:101518001A40079B6B40039D2B40089D35406A404D
:101528002892079D099A2A4053402993289D299E6D
:10153800269A279B521973410E9E0F9F36184F41CA
:1015480080185941089A099B049005910E920F93AF
:101558000C9A0D9B10921193802C00D074E10023FB
:101568001293184B3893129B2A9A103312934023E4
:101578009B181093129B389ADB009B182B930C9B9B
:101588000D9C289329940A9B0B9C0C930D94009B0B
:10159800019C0A930B94089B099C26932794069B0D
:1015A800079C08930994029B039C06930794049B49
:1015B800059C029303940223009601975B420E93C5
:1015C80002E0C046804300080F230E9A1A400832F2
:1015D8002A9BD200D21813685268D90C55036D188B
:1015E8005C03D10C6418500FD9004018590F8C4671
:1015F800D100614461409B0994066840E318920950
:1016080058405140109A2C902D912C9B2D9C10687D
:101618005168C018614103000C001490159118C25C
:101628000F230E9A0D3A1A4008322A9BD200D2187C
:10163800136852685C08D50729195508DC073991E1
:101648006419190A15066D18110A8C4619066144A1
:1016580008003999DB094D405106CB184440D2099E
:101668005D4054402E952F942E9B2F9C14981599CD
:10167800C01861410F22109C03C40E9C631F1340C5
:1016880008332A9ADB009B1830CB24184D412100DF
:101698002A00109BB80306C3BA041093B30BD218E0
:1016A800B104BB0BC918B30C14941595C018B40336
:1016B800BB0CE31842404B40780AF1054018FC0582
:1016C800710A091942404B40319330920C9A0D9B94
:1016D8000A990B9831403840B243BB434A404340D3
:1016E8003292339332983399309A319B12184B4186
:1016F800289C299D2B9E03CE12184B4114981599AE
:1017080012184B41A4185D41059B2B961A01049BA6
:101718001B0FD218049B1901059B1B0FC918059BA9
:101728009808049B9B07C018049B42409E08059B91
:101738009B07F3184B400599059EC809049976063E
:101748004906401804994240C90989194B40349206
:101758003593069A089B09995A40049B1A40079B9F
:101768004B40059906980B400899269E279F0140F3
:101778004A4036920799099A36196F410A405340F0
:10178800379336983799349A359B12184B41A418D9
:101798005D410E9B0494059501330E93089B099CAB
:1017A800269327940C9B0D9C289329940E9B0E2B13
:1017B80000D060E0129B402B00D0D4E60498059935
:1017C800169A179B12184B412A990CC10298039933
:1017D800189A199B12184B412A998A60CB6006986F
:1017E80007991A9A1B9B12184B412A990A614B6157
:1017F800089809991C9A1D9B12184B412A998A61CD
:10180800CB611E9A1F9B92197B410A624B6200981A
:101818000199209A219B12184B412A998A62CB621E
:101828000A980B99229A239B12184B412A990A630A
:101838004B630C980D99249A259B12184B412A99B1
:101848008A63CB633BB0F0BD0A9A0B9B0C920D9355
:10185800009A019B009601970A920B93069A079BA0
:1018680008920993029A039B06920793049A059B90
:1018780002920393D8E50A9B0B9C0C930D94009B52
:10188800019C009601970A930B94069B079C08936A
:101898000994029B039C06930794049B059C02935E
:1018A800039491E603000722D03370B51D68EB0856
:1018B800DB00AA43C418D20008000021FEF746FE48
:1018C800236C1843636C20640B43636470BD000091
:1018D800F0B504000723D034266885B00D000090C9
:1018E80001921E420ED076421E40964200D9160042
:1018F8002F0073190293029BBB4242D1019BAD1981
:101908009B1B01937F222668164216D07342134010
:10191800019AD708934200D8DF080098F308DB0043
:1019280040303A002900C018FFF718FD019BFF005E
:10193800F619DB1B2660ED190193802E2AD02C00A6
:10194800019BDB09DB01EF18A7424AD17F23019DE8
:10195800019A1D401A4212D078240098EA083900EA
:101968004030FFF7FBFC019B009E23401C00D03653
:1019780033687D19E3183C193360A54262D105B07C
:10198800F0BD39780098FFF78DFF236801370133E0
:101998002360B0E780200021009EC000C83632686E
:1019A80073688018594102920393039B03C6591C1C
:1019B8000CD1284B029A9A4208D901200021009E96
:1019C800C0363268736812184B410CC60098FFF78E
:1019D800E7FC0021009880222160403002F02DFCB5
:1019E800ADE7009D1022403521002800FFF7B6FC26
:1019F80080200021009EC000C836326873688018B5
:101A0800594102920393039B03C6591C0DD1114BF4
:101A1800029A9A4209D900990120C0310A684B6894
:101A28000E00002112184B410CC60098FFF7B8FCB5
:101A38000021009B8022D0332800196002F0FDFBB2
:101A4800803481E721780098FFF72CFF3368013450
:101A5800013391E7FFFBFFFF184A194B10B50260ED
:101A68004360184A184B01008260C360174A184B3C
:101A7800C03102614361174A174B8261C361174A3B
:101A8800174B02624362174A174B8262C362174AB6
:101A9800174B02634363174A174B8263C3630022E1
:101AA80000230A604B608A60CB6003000021D033BA
:101AB80019604030803202F0C0FB10BD08C9BCF389
:101AC80067E6096A3BA7CA8485AE67BB2BF894FE14
:101AD80072F36E3CF1361D5F3AF54FA5D182E6AD43
:101AE8007F520E511F6C3E2B8C68059B6BBD41FBD2
:101AF800ABD9831F79217E1319CDE05B10B5002A7D
:101B080001D0FFF7E5FE10BD0300F7B5D0331F681D
:101B180004000191002F04D180223900403002F0E6
:101B28008CFB802120002600FFF7BCFE0021C83670
:101B3800F80032687368250012184B41C0353260CE
:101B48007360994209D1904207D92A686B680120CD
:101B5800002112184B412A606B606F2F08D92000B2
:101B6800FFF71EFC200070220021403002F065FBC8
:101B780003CD2300B0331860596003CE9860D96054
:101B88002000FFF70DFC019B22001D004035506826
:101B98001168060E1E70060C5E70D870060A080ED4
:101BA8001871080C5871080A9E709871D971083319
:101BB80008329D42EBD1D821200001F05BFFF7BD30
:101BC800437882781B020078120413431843704745
:101BD8004278037812021A438378C0781B041343AF
:101BE80000061843704770B50400FFF7F1FF0500C1
:101BF800201DFFF7EDFF0100280070BD0B0A0170E2
:101C080043700B0C090E8370C1707047F8B506005D
:101C18000F00002495003819FFF7DAFF305104341B
:101C2800AC42F8D1F8BDF8B507000E002025042A0B
:101C380000D1103D0024315938190434FFF7DEFF74
:101C4800AC42F8D1F8BDF7B50E000400FFF7CBFFA2
:101C5800070030000D00FFF7C6FF4740200008309E
:101C68004D40FFF7C0FF0190300008300C00FFF72F
:101C7800BAFF019B6140434018002943384303B031
:101C8800F0BDF8B50F000400FFF7DDFF06000D00FA
:101C98002000390010301031FFF7D5FF30432943B9
:101CA800F8BD10B52822002102F0C7FA10BD0123A3
:101CB80010B52422002108C002F0BFFA10BD00238D
:101CC800CA58C2500433282BFAD170470023CA5887
:101CD8005242C2500433282BF9D17047002330B543
:101CE800CC58D5586419C4500433282BF8D130BDCA
:101CF800002330B5CC58D558641BC4500433282B66
:101D0800F8D130BD13B55242019204680A68019BAC
:101D180062401340634003604A684468019B624024
:101D28001340634043608A688468019B62401340A3
:101D380063408360CA68C468019B62401340634083
:101D4800C36004690A69019B6240134063400361F0
:101D580044694A69019B6240134063404361846956
:101D68008A69019B6240134063408361C469019B97
:101D7800CA69624013406340C361046A0A6A019BEE
:101D88006240134063400362446A4A6A019B6240AE
:101D980013406340436213BDF0B50600A5B00800C8
:101DA8000C001500FFF714FF00230090201D01937D
:101DB800FFF706FF830104930023E01D0593FFF757
:101DC800FFFE43012000069300230A300793FFF724
:101DD800F7FEC3002000089300230D300993FFF796
:101DE800EFFE830020000293002310300393FFF7D7
:101DF800EFFE0A902000002314300B93FFF7E0FE5B
:101E0800C30120000C93002317300D93FFF7D8FE71
:101E1800430120000E9300231A300F93FFF7D0FEE2
:101E280003012000109300231D301193FFF7C8FE13
:101E3800BC4B00212B4118408300802012930023C3
:101E480080041393009B019CC01861418C01820E91
:101E5800A2188B169409990661189006009C019D9A
:101E6800241A8D410498059980185941802200232D
:101E78009204049005910298039912184B411E94FC
:101E88001F959901940E0C199D1600236242AB41CF
:101E98008021149215931498C904084002000298EE
:101EA80003990023801A99410A9A0B9B12196B41D6
:101EB80002920393802300245B041A901B910498D8
:101EC8000599C0186141049C059DCF01420EBA18BE
:101ED8004B16D709590679185006241A8D410698C9
:101EE80007998018594180232094219500245B0488
:101EF8001490159102980399C0186141029C039DA2
:101F0800CF01420EBA184B16D70959067918500650
:101F1800241A8D410C980D9980185941802200236C
:101F28009204169017911498159912184B41900E17
:101F3800990109189B16039302910299039A229416
:101F48002395089B099C5B18544116981799802281
:101F5800189319940023920412184B41900E99017A
:101F680009189B160593049180200499059A0E9BE5
:101F78000F9C5B185441002140040E930F94189A4B
:101F8800199B12184B41500ED90109185B1607937B
:101F9800069180200699079A1A9B1B9C5B1854414E
:101FA800002140041A931B940E9A0F9B12184B4160
:101FB800500ED90109185B16099308910899099AD6
:101FC800109B119C5B1854411A981B9980221093FE
:101FD80011940023920412184B41900E990180220B
:101FE8009B160B930023091892040A9110981199D3
:101FF80012184B41900E990109189B160C910D93DC
:102008000C990D9A129B139C5B18544180201293D3
:1020180013941A0000212300400412184B41DC01DC
:10202800500E20185916002443428C411C931D94CD
:1020380013231C9A00251A4014001E9A1F9BA418EB
:102048005D4180220023920412196B419F01900E7A
:102058003818991687098B06FB188206A41A9D4121
:102068003460209B219CC0186141029B70600398DA
:1020780099098306CB1802998A0614981599801A2B
:102088009941069BB0600798D9094306CB18069971
:102098004A0618981999801A99410A9BF0600B987A
:1020A80099098306CB180A998A061A981B99801AE7
:1020B8009941229A239B30610A980B9912184B4137
:1020C800049B059899098306CB18049972618A06BE
:1020D80016981799801A9941B061089B0998D909EF
:1020E8004306CB1808994A060E980F99801A994109
:1020F8000C9BF0610D9899098306CB180C998A06F8
:1021080010981199801A9941802130621C9889048D
:1021180008400200129813990023801A99417062AE
:1021280025B0F0BDFFFFFF00F0B506000868A3B0BA
:102138000F00D317C117140002F0B6F800900191F0
:1021480078682200E317C11702F0AEF804900591F1
:10215800B8682200E317C11702F0A6F808900991A1
:10216800F8682200E317C11702F09EF80A900B9155
:1021780038692200E317C11702F096F8029003911C
:1021880078692200E317C11702F08EF80C900D91C0
:10219800B8692200E317C11702F086F80E900F9174
:1021A800F8692200E317C11702F07EF81290139124
:1021B800386A2200E317C11702F076F816901791D3
:1021C800786A2200E317C11702F06EF88023002412
:1021D8009B041890199100980199C0186141009CBE
:1021E800019D8F01820EBA188B16970999067918E6
:1021F8009006241A8D410498059980185941802326
:102208001C941D9500249B04009001910298039949
:10221800C0186141029C039D8F01820EBA188B166B
:102228009709990679189006241A8D410C980D99EA
:10223800801859410694079502900391009B019CD0
:10224800802000214004C0186141009C019DCF01FD
:10225800420EBA184B16D709590679185006241A8F
:102268008D4108980999801859410C900D9180204A
:10227800002140041E941F95029B039CC0186141D5
:10228800029C039DCF01420EBA184B16D709590676
:1022980079185006241A8D410E980F9980185941C3
:1022A8000C9A0D9B0E900F9180200021800412182B
:1022B8004B41900E990109189B16019300918020BB
:1022C8000099019A209421950A9B0B9C5B18544114
:1022D80000218004109311940E9A0F9B12184B4101
:1022E800900E990109189B16039302910299039A7B
:1022F800129B139C5B1854411098119980221293D9
:1023080013940023520412184B41500ED901091896
:102318005B1605930491069B079C0499059A5B1824
:10232800544112981399802214931594002352044F
:1023380012184B41500ED90109185B1607930691E4
:102348008020169B179C0699079A5B185441002118
:10235800800416931794149A159B12184B41900EEB
:10236800990109188020089100219B16800409937F
:10237800169A179B12184B41900E990109189B1633
:102388000B930A910A990B9A189B199C5B18544154
:102398008022189319941898199900235204121836
:1023A8004B41D901570E5B16CF191B931B9913226A
:1023B8000023380001F078FF1C9B1D9C8022C01868
:1023C80061410023920412184B419C01A446940ECB
:1023D80064449D16A3099C46AB066344A206801A72
:1023E80099411E9A1F9B3060A4185D410198009B7B
:1023F800746099098306CB1800998A060C980D9980
:10240800801A9941049BB0600598D9094306CB18F6
:1024180004994A0610981199801A9941089BF0600E
:10242800099899098306CB1808998A06149815996A
:10243800801A9941209A219B3061089809991218AD
:102448004B41029B0398990983067261CB18029944
:102458008A060E980F99801A9941069BB0610798D1
:10246800D9094306CB1806994A0612981399801A77
:1024780099410A9BF0610B9899098306CB180A9930
:102488008A0616981799801A994130621B98F9099B
:102498004306CB187A0618981999801A99417062E0
:1024A80023B0F0BDF0B54B68D5B02993CB681324A1
:1024B8002A934B691D902B93CB692C934B6A2D93D0
:1024C8005368009393680E93D3681E9313692693F9
:1024D8005369309393693393D3693D93136A4C934B
:1024E800536A4D930B680293DB1710931368049398
:1024F800DB171293299B5B003493DB173E934D9BAC
:1025080063431493DB1720938B680693DB171693AA
:102518004C9B63432293DB1727932A9B5B003593DD
:10252800DB173F933D9B63431D00DB172E930B691D
:102538000893DB171893339B63433193DB17369368
:102548002B9B5B003893DB174293309B049A6343C1
:102558003993DB1740938B6902980A93DB171C9316
:10256800269B63433C93DB174A932C9B5B003A936F
:10257800DB1743931E9B63433293DB174E930B6A1F
:1025880010990C93DB171A930E9B63432893DB1760
:1025980052932D9B5B003B93DB174493129B01F0F6
:1025A80083FE149A209B06000F0034983E9901F090
:1025B8007BFE229A36184F41279B0698169901F000
:1025C80073FE2E9B36184F412A0035983F9901F02B
:1025D8006BFE369B36184F41319A0898189901F0CE
:1025E80063FE399A36184F41409B3898429901F05A
:1025F8005BFE3C9A36184F414A9B0A981C9901F099
:1026080053FE329A36184F414E9B3A98439901F03F
:102618004BFE289A36184F41529B0C981A9901F094
:1026280043FE36184F4100983B9A6043449BC117BC
:1026380001F03AFE36184F41009B50965197DB1730
:102648002493299BDB1745932A9BDB1746932B9BE7
:10265800DB1747932C9B009ADB1748932D9B029816
:10266800DB1710994993249B01F01EFE299A459B7C
:1026780006000F000498129901F016FE069A361803
:102688004F41169B1498209901F00EFE2A9A36188D
:102698004F41469B2298279901F006FE089A361862
:1026A8004F41189B2E99280001F0FEFD2B9A3618F1
:1026B8004F41479B3198369901F0F6FD0A9A361832
:1026C8004F411C9B3998409901F0EEFD2C9A361821
:1026D8004F41489B3C984A9901F0E6FD0C9A361800
:1026E8004F411A9B32984E9901F0DEFD2D9A36180B
:1026F8004F41499B2898529901F0D6FD36184F4111
:102708000E9B0E9A02981099DB17529653972893AE
:1027180001F0CAFD009A249B06000F0034983E99E8
:1027280001F0C2FD069A36184F41169B049812997B
:1027380001F0BAFD359A36184F413F9B14982099FD
:1027480001F0B2FD089A36184F41189B2298279934
:1027580001F0AAFD389A36184F41429B2E9928005D
:1027680001F0A2FD0A9A36184F411C9B3198369900
:1027780001F09AFD3A9A36184F41439B399840998F
:1027880001F092FD0C9A36184F411A9B3C984A99D1
:1027980001F08AFD3B9A36184F41449B32984E9976
:1027A80001F082FD36184F411E9B1E9A029810991F
:1027B800DB174E964F97329301F076FD0E9A289BC1
:1027C80006000F002998459901F06EFD009A361809
:1027D8004F41249B0698169901F066FD2A9A3618EF
:1027E8004F41469B0498129901F05EFD089A3618ED
:1027F8004F41189B1498209901F056FD2B9A3618D2
:102808004F41479B2298279901F04EFD0A9A3618A6
:102818004F411C9B2E99280001F046FD2C9A361832
:102828004F41489B3198369901F03EFD0C9A361875
:102838004F411A9B3998409901F036FD2D9A361868
:102848004F41499B3C984A9901F02EFD36184F415B
:10285800269B269A02981099DB174A964B973C9329
:1028680001F022FD1E9A329B06000F0034983E9913
:1028780001F01AFD0E9A36184F41289B06981699B2
:1028880001F012FD009A36184F41249B35983F9964
:1028980001F00AFD089A36184F41189B04981299BE
:1028A80001F002FD389A36184F41429B149820993E
:1028B80001F0FAFC0A9A36184F411C9B2298279976
:1028C80001F0F2FC3A9A36184F41439B2E992800A2
:1028D80001F0EAFC0C9A36184F411A9B3198369948
:1028E80001F0E2FC3B9A36184F41449B39984099D5
:1028F80001F0DAFC36184F41309B309A0298109953
:10290800DB1740964197399301F0CEFC269A3C9B01
:1029180006000F002998459901F0C6FC1E9A361842
:102928004F41329B0698169901F0BEFC0E9A361854
:102938004F41289B2A98469901F0B6FC009A361810
:102948004F41249B0898189901F0AEFC2B9A361831
:102958004F41479B0498129901F0A6FC0A9A361831
:102968004F411C9B1498209901F09EFC2C9A361814
:102978004F41489B2298279901F096FC0C9A3618EB
:102988004F411A9B2E99280001F08EFC2D9A36187B
:102998004F41499B3198369901F086FC36184F41D2
:1029A800339B339A02981099DB17369637973193F1
:1029B80001F07AFC309A399B06000F0034983E9952
:1029C80001F072FC269A36184F413C9B06981699DE
:1029D80001F06AFC1E9A36184F41329B35983F9990
:1029E80001F062FC0E9A36184F41289B08981899F6
:1029F80001F05AFC009A36184F41249B38984299A6
:102A080001F052FC0A9A36184F411C9B04981299FF
:102A180001F04AFC3A9A36184F41439B1498209982
:102A280001F042FC0C9A36184F411A9B22982799BC
:102A380001F03AFC3B9A36184F41449B2E992800E6
:102A480001F032FC36184F413D9B2E962F97DF1729
:102A58001A0002983B00109901F026FC339A319B2A
:102A680004000D002998459901F01EFC309A24189D
:102A78004D41399B0698169901F016FC269A2418A0
:102A88004D413C9B2A98469901F00EFC329B241834
:102A98004D411E9A0898189901F006FC0E9A2418C0
:102AA8004D41289B2B98479901F0FEFB009A24186A
:102AB8004D41249B0A981C9901F0F6FB2C9A241886
:102AC8004D41489B0498129901F0EEFB0C9A24188A
:102AD8004D411A9B1498209901F0E6FB2D9A241871
:102AE8004D41499B2298279901F0DEFB24184D415E
:102AF8004C9B0298DE171A001099330022942395F4
:102B080001F0D2FB3B003D9A04000D0034983E9939
:102B180001F0CAFB339A24184D41319B0698169947
:102B280001F0C2FB309A24184D41399B35983F99E2
:102B380001F0BAFB269A3C9B24184D410898189935
:102B480001F0B2FB1E9A24184D41329B38984299E5
:102B580001F0AAFB0E9A24184D41289B0A981C994B
:102B680001F0A2FB009A24184D41249B3A984399FE
:102B780001F09AFB0C9A24184D411A9B049812995B
:102B880001F092FB3B9A24184D41449B20991498DC
:102B980001F08AFB24184D414D9B029A4D98D91794
:102BA800109B2094219501F07FFB4C9A3300040080
:102BB8000D002998459901F077FB3D9A24184D415D
:102BC8003B000698169901F06FFB339A24184D4183
:102BD800319B2A98469901F067FB399B24184D418F
:102BE800309A0898189901F05FFB269A24184D41ED
:102BF8003C9B2B98479901F057FB1E9A24184D418E
:102C0800329B0A981C9901F04FFB0E9A24184D41EB
:102C1800289B2C98489901F047FB009A24184D41AD
:102C2800249B1A990C9801F03FFB2D9A24184D41CA
:102C3800499B0498129901F037FB24184D418020D4
:102C4800002180040A940B95509B519CC018614147
:102C58008C01820EA2188B169409990661189006A9
:102C6800509C519D241A8D41529853991A941B9542
:102C780080240025A40412184B4140984199241837
:102C88004D41AE01A00E3018A91686098D0675199A
:102C98008406409E419F361BAF4180240025640472
:102CA800A4185D4106960797369E379F36184F4100
:102CB800E9018C46600E6044C409A44669164D06B5
:102CC80065444406121BAB411E921F934E9B4F9CBA
:102CD8001B184C41802000214004801979410C9335
:102CE8000D94420ECC01A2184B16D409590661184E
:102CF8005006361A8F412E982F99801859418022F4
:102D0800002392040E900F910C980D9912184B41C4
:102D1800900E990109189B16019300910099019A48
:102D28004A9B4B9C5B1854410E980F998022109334
:102D380011940023920412184B41900E990109181E
:102D48009B16039302910299039A229B239C5B187A
:102D5800544110981199802212931394002352041D
:102D680012184B41500ED90109185B1605930491AE
:102D7800069B079C0499059A5B185441129813996D
:102D88008022149315940023520412184B41500EBC
:102D9800D90109185B16079306910699079A209B93
:102DA800219C5B1854411498159980221693179406
:102DB8000023920412184B41900E990109189B1692
:102DC800802224962597089109930023169817992D
:102DD800920412184B419901960E8E199F160A9B60
:102DE8000B9C9B197C418022189319941898199967
:102DF8000023520412184B41500ED9015B161C9344
:102E080009180A911322002308001C9901F04CFAB2
:102E18001A9B1B9C8022C01861410023920412183F
:102E28004B419C01A446940E64449D16A3099C46FC
:102E3800AB066344A206801A99411D9B18601E9A2E
:102E48001F9BA4185D411D9B01985C60009B99091C
:102E58008306CB1800998A060C980D99801A994117
:102E680002001D99049B05988A60D9094306CB186E
:102E780004994A0610981199801A994102001D99DF
:102E8800089B0998CA6099098306CB1808998A068D
:102E980014981599801A994102001D990A61089899
:102EA8000999249A259B12184B411D994A61029B46
:102EB800039899098306CB1802998A060E980F99E8
:102EC800801A994102001D99069B07988A61D909C1
:102ED8004306CB1806994A0612981399801A994105
:102EE80002001D99BB06CA61B109CB18B206169833
:102EF8001799801A994102001D990A9B1C980A6229
:102F0800D9094306CB180A994A0618981999801ABC
:102F1800994102001D994A6255B0F0BDF0B52625C9
:102F28004B68BDB02F938B680C681B93CB681A90C5
:102F38002B930B69200000934B6924938B690293B0
:102F4800CB6926930B6A27934B6AE11730932F9B23
:102F58005B000493DB170A93309B6B430693DB17E4
:102F68000C931B9B5B001C93DB172A931323279A54
:102F78005A431492D2171E922B9A52000E92D217CD
:102F88001692269A6A432892D2172C92009A5200D7
:102F98003292D2173992029A5A43D3173493249B08
:102FA8003192DB17220038930B0001F07DF9069A65
:102FB8000C9B06000F0004980A9901F075F9149A01
:102FC80036184F411E9B1C982A9901F06DF9289AD2
:102FD80036184F412C9B0E98169901F065F9319AD5
:102FE80036184F41349B3298399901F05DF93618FB
:102FF8004F412498249A6843389BC11701F054F92B
:1030080036184F416300369637970893DB171093AD
:103018002F9B2F9ADE171B9B0898DB172E93009B7C
:103028001099DB171293249B5B001893DB172093EE
:10303800330001F039F91B9A2E9B04000D00069805
:103048000C9901F031F90E9A24184D41169B1498E9
:103058001E9901F029F9009A24184D41129B2898CD
:103068002C9901F021F9189A24184D41209B319888
:10307800349901F019F924184D41029B3A943B9573
:10308800DB171B9A22932E9B0898109901F00CF9D4
:103098002F9A330004000D0004980A9901F004F9EE
:1030A80024184D410E9A169B06980C9901F0FCF8CD
:1030B80026002F00329A36184F41399B14981E99D2
:1030C80001F0F2F8189A36184F41209B28982C994D
:1030D80001F0EAF8029A36184F41229B3198349948
:1030E80001F0E2F836184F412B9B32963397DB17E5
:1030F8002B9A2F930898109901F0D6F81B9A2E9BBB
:1031080006000F0004980A9901F0CEF8009A3618C4
:103118004F41129B06980C9901F0C6F8189A361878
:103128004F41209B14981E9901F0BEF8029A361858
:103138004F41229B28982C9901F0B6F836184F4138
:10314800269B009ADB17089810993193129B3496A6
:10315800359701F0A9F80E9A169B04000D00049803
:103168000A9901F0A1F82E9B1B9A24184D411000D2
:10317800190001F099F8189A24184D41209B0698D7
:103188000C9901F091F824184D41029B149A5800AB
:10319800C1171E9B01F088F826002F00269A3618C2
:1031A8004F41319B28982C9901F07EF836184F41F1
:1031B800269B089A5C00E317249838992E93109B55
:1031C8002896299701F070F8009A129B06000F00C4
:1031D80004980A9901F068F82B9A36184F412F9BEA
:1031E8001C982A9901F060F8029A36184F41229BE0
:1031F80006980C9901F058F8220036184F41E31749
:1032080014981E9901F050F836184F41279B029ADE
:10321800DB17089810991B93229B2C962D9701F089
:1032280043F8189A209B06000F0004980A9901F0A9
:103238003BF8009A129B36184F411C982A9901F0C6
:1032480033F82B9A36184F412F9B0E98169901F098
:103258002BF8220036184F41E31706980C9901F015
:1032680023F8279A36184F411B9B14981E9901F092
:103278001BF836184F41269A319B089810991496D6
:10328800159701F011F8029A229B06000F00049886
:103298000A9901F009F8249A36184F41389B1C986E
:1032A8002A9901F001F8009A36184F41129B0E989E
:1032B800169900F0F9FF279A36184F411B9B06987C
:1032C8000C9900F0F1FF36184F41309B279ADD1713
:1032D80008981B9B10991E961F9700F0E5FF2E9BE0
:1032E800220006000F0004980A9900F0DDFF029AF8
:1032F80036184F41229B1C982A9900F0D5FF189A3E
:1033080036184F41209B0E98169900F0CDFF009A71
:10331800129B36184F411000190000F0C5FF309A73
:1033280036184F412B0006980C9900F0BDFF36184F
:103338004F412B00309A089810992496259700F051
:10334800B3FF279A1B9B04000D0004980A9900F00C
:10335800ABFF269A24184D41319B1C982A9900F0FE
:10336800A3FF029A24184D41229B0E98169900F04B
:103378009BFF209B24184D41189A0098129900F041
:1033880093FF24184D418020002180040A940B9556
:10339800369B379CC01861418C01820EA2188B168F
:1033A8009409990661189006369C379D241A8D4118
:1033B8003A983B991C941D9580240025A404121862
:1033C8004B412898299924184D41AE01A00E301878
:1033D800A91686098D0675198406289E299F361B0D
:1033E800AF41802400256404A4185D410696079720
:1033F8002C9E2D9F36184F41E9018C46600E604483
:10340800C409A44669164D0665444406121BAB411F
:1034180020922193329B339C1B184C418020002121
:103428004004801979410C930D94420ECC01A218E6
:103438004B16D409590661185006361A8F4114984C
:103448001599801859418022002392040E900F91FB
:103458000C980D9912184B41900E990109189B165A
:10346800019300910099019A349B359C5B18544153
:103478000E980F9980221093119400239204121829
:103488004B41900E990109189B16039302910299DA
:10349800039A1E9B1F9C5B18544110981199802217
:1034A800129313940023520412184B41500ED90161
:1034B80009185B1605930491069B079C0499059AC5
:1034C8005B18544112981399802214931594002381
:1034D800520412184B41500ED90109185B16079374
:1034E80006910699079A249B259C5B1854411498C9
:1034F80015998022169317940023920412184B41B1
:10350800900E990180229B160993002309189204B2
:1035180008911698179912184B41229623979901EA
:10352800960E8E199F160A9B0B9C9B197C41802234
:1035380018931994189819990023520412184B419A
:10354800500ED9015B161B9309180A911322002308
:1035580008001B9900F0A8FE1C9B1D9C8022C01827
:1035680061410023920412184B419C01A446940E19
:1035780064449D16A3099C46AB066344A206801AC0
:1035880099411A9B1860209A219BA4185D411A9BA7
:1035980001985C60009B99098306CB1800998A06FC
:1035A8000C980D99801A994102001A99049B059864
:1035B8008A60D9094306CB1804994A0610981199CC
:1035C800801A994102001A99089B0998CA609909BA
:1035D8008306CB1808998A0614981599801A994178
:1035E80002001A990A6108980999229A239B1218CD
:1035F8004B411A99029B4A61039899098306CB1893
:1036080002998A060E980F99801A994102001A9910
:10361800069B07988A61D9094306CB1806994A067A
:1036280012981399801A994102001A99BB06CA6127
:10363800B109CB18B20616981799801A9941020059
:103648001A990A9B1B980A62D9094306CB180A994A
:103658004A0618981999801A994102001A994A62DB
:103668003DB0F0BD02000020814206DBCB10D05CEB
:10367800072319400841063B18407047F7B50C4E20
:10368800002301240025B4466646F6580022F1437B
:10369800C65801920096009E019F76185741361928
:1036A8006F4104333C001500202BEDD13800FEBDDE
:1036B800044A0008F0B587B0059008000491FFF7A8
:1036C800DDFF114A002394460400C51740426246B4
:1036D800D15802008A43009200220192049A009E67
:1036E800019FD2580292002203920299039A7618F7
:1036F800574136196F41059A3C00D65004330025CE
:10370800202BE4D107B0F0BD044A000810B504002E
:10371800FEF7C7FA20002830FEF7C9FA200050301B
:10372800FEF7C5FA20007830FEF7BBFA10BD00009E
:1037380070B50E00050028360C000A003100FEF7AF
:10374800CDFA2800220031002830FEF7D1FA2800EF
:10375800210050305031FEF7B2FA28002100034A08
:1037680078317830FEF79EFE70BDC046244A0008C6
:10377800F0B50E000D00170097B0283604000A00B7
:1037880002A83100FEF7AAFA2A0031000CA8FEF7B9
:10379800AFFA02A93A000800FEF784FE3A000CA925
:1037A80008002832FEF77EFE2300283318000CAAF2
:1037B80002A90093FEF792FA20000CAA02A9FEF7CC
:1037C80097FA26002900503650310A003000FEF7DB
:1037D80085FA3A00310030005032FEF763FE2300CC
:1037E8003A00290078331800783278310193FEF7CF
:1037F80059FE3100019A02A8FEF770FA3100019AC9
:103808000CA8FEF775FA2100009A0198FEF74AFE07
:10381800210020000CAAFEF745FE009902AA080024
:10382800FEF740FE30000CAA02A9FEF73BFE17B0D7
:10383800F0BDF0B50F000E001C00050085B028375C
:10384800180003920A003900FEF748FA32003900DE
:103858000A98FEF74DFA21002000039AFEF722FE8F
:103868000A99039A08002832FEF71CFE2B00283319
:10387800180021000A9A0193FEF730FA2100280067
:103888000A9AFEF735FA2B003100503350311800F0
:103898000A002F000293FEF721FA3100039A7837C5
:1038A800380050327831FEF7FDFD3A0020000299C9
:1038B800FEF714FA3A0002990A98FEF719FA290055
:1038C8003800019AFEF7EEFD290028000A9AFEF753
:1038D800E9FD019922000800FEF7E4FD21000A9A9B
:1038E8000298FEF7DFFD05B0F0BDF0B514000E003C
:1038F80085B002901000FFF711FB25003300283532
:1039080028331900280027000393FFF707FB31002D
:10391800503738005031FFF701FB390038000222D8
:10392800FEF702FC230078331800039A3100019354
:10393800FEF7D4F9029E019978363000FFF7EEFAC7
:10394800220029000198FEF7C9F922002900280061
:10395800FEF7CEF931002000019AFEF7C9F92A00D6
:1039680039003800FEF7C4F93A0021000298FEF742
:1039780099FD02982A0001992830FEF793FD0298D4
:103988003A0029005030FEF78DFD21003000019AE1
:10399800FEF788FD05B0F0BDF0B587B00291009341
:1039A800C37804001600019393420CD111000098CB
:1039B800FFF758FE771E050039000098FFF752FE02
:1039C800854209D1E7700022A35E0020B34201D1ED
:1039D8000220205607B0F0BD019B5F1C029B9F424E
:1039E80000DD1F007B1E9D406B420293F51BBB1B35
:1039F800049505936B1C03939E4220D1049900986B
:103A0800FFF730FEF021029B18184342034019408B
:103A18004A1E9141CC221A40551EAA4189005200E3
:103A28000A43AA210B40591E8B411A431041731CAB
:103A3800DB1B9B182380019BA070DF1BC2E7691C5E
:103A48000098FFF70FFE059B5D19A840029B039D98
:103A58001B180293CEE710B5FEF713F901430A00CD
:103A6800002301204042C11712184B410230184070
:103A7800013810BD00234118884200D170470370F7
:103A88000130F9E7F0B58BB06B46050045C945C371
:103A980045C945C345C945C30A6800201A601300D3
:103AA80013225343802252049B1869466A465B16C8
:103AB8000E6801309B194E689B169B195B160831DE
:103AC8000528F5D1132100204B43116801305B18FC
:103AD80099168E069B1B13605368C9184B165E0611
:103AE800891B516008320528EFD1019F009BB90658
:103AF80028001943FEF782F8029EB909F304194316
:103B0800281DFEF77BF82800039F710B7B031943E0
:103B18000830FEF773F828000499FF0C890139432F
:103B28000C30FEF76BF82800069F059B79061943B1
:103B38001030FEF763F82800079EF909F3041943CB
:103B48001430FEF75BF82800089F710B3B031943FC
:103B58001830FEF753F8280009993F0D89013943B9
:103B68001C30FEF74BF828216846FFF783FF0BB09F
:103B7800F0BD10B50C0090B001006846FFF782FF59
:103B8800210008A8FFF77EFF08A96846FFF763FF32
:103B9800202104006846FFF76DFF08A82021FFF7E1
:103BA80069FF601C10B010BDF0B50C00A1B0070093
:103BB80002A8FFF7B3F902A90CA8FFF7AFF90CA9FF
:103BC8000800FFF7ABF90CAA10002100FEF76AFC09
:103BD80002A908000CAAFEF765FC02A90800FFF775
:103BE8009DF902AA10000CA9FEF75CFC02A90CA81A
:103BF800FFF794F904250CA90800013DFFF78EF999
:103C0800002DF8D102AA10000CA9FEF74BFC02A95E
:103C18000CA8FFF783F909350CA90800013DFFF747
:103C28007DF9002DF8D10CA9080002AAFEF73AFC8C
:103C38000CA916A8FFF772F9133516A90800013D5B
:103C4800FFF76CF9002DF8D10CAA100016A9FEF7A1
:103C580029FC0CA90800FFF761F909350CA908002F
:103C6800013DFFF75BF9002DF8D102AA10000CA95D
:103C7800FEF718FC02A90CA8FFF750F931350CA97A
:103C88000800013DFFF74AF9002DF8D10CA90800FA
:103C980002AAFEF707FC0CA916A8FFF73FF963353F
:103CA80016A90800013DFFF739F9002DF8D10CAA33
:103CB800100016A9FEF7F6FB0CA90800FFF72EF96D
:103CC80031350CA90800013DFFF728F9002DF8D17E
:103CD80002AA10000CA9FEF7E5FB02A90800FFF7ED
:103CE8001DF902A90800FFF719F902A92200080026
:103CF800FEF7D8FB02A90CA8FFF710F90CA92200BF
:103D08000800FEF7CFFB16A8FDF7CBFF16A9200089
:103D1800FFF72FFF009016A8FDF7C9FF16A90CA8FA
:103D2800FFF727FF16A901900800FDF7CFFF16A996
:103D38000CA8FFF71EFF1449060016A8FDF7C6FFDA
:103D480016A90CA8FFF715FF02A905000E4A3800AE
:103D5800FEF7A8FB012235436A40380002A9FDF7A7
:103D6800D1FF02A82821FFF785FE0CA82821FFF71C
:103D780081FE16A82821FFF77DFE0098019B1843B5
:103D8800304321B0F0BDC046744A000830B50C007D
:103D980005008BB06846FFF7C1F869466846FFF72B
:103DA80003FF69466846FFF7B9F82200694628000C
:103DB800FEF778FB28216846FFF75CFE0BB030BDA4
:103DC800F0B50025ADB0119007916422002113A829
:103DD80000F033FA13AB1C000893474B0F93079B73
:103DE80040330E930F9AAB00D35800221093079BD1
:103DF80026001F0009930023029203930023109AC0
:103E0800190001CF00F050FA3368009300230193A2
:103E1800009A019B80185941029A039B80185941C6
:103E2800002303930E9B01C60291BB42E6D10135E4
:103E380021640434092DD5D12022019913A800F05A
:103E4800FCF92E4B019F029313AC236C00220E93B6
:103E58000023250000920193294E00230E9A190091
:103E680001CE00F021FA2B680A9300230B930A9ADB
:103E78000B9B80185941009A019B801859410023D7
:103E88000193029B01C50091B342E6D1029B013721
:103E9800043B04340293082FD7D101200021079C4A
:103EA8002034089B1B68DB43049300230593099B7C
:103EB80004CB099300230C920D930C9D0D9E049A3C
:103EC800059B5219734112184B41089D1800099B14
:103ED80004C5002108959C42E3D113A90800FFF707
:103EE800E9FB0822119813A9FDF79DFE642113A888
:103EF800FFF7C0FD2DB0F0BD20460008244A000899
:103F0800044A000830B589B06D46012401006846AE
:103F1800FFF7B8FD2B7868461C402021FFF7AAFD63
:103F2800200009B030BD0000F7B5040006002700E6
:103F38002500283601225037300078350191FDF7E9
:103F48002BFF3800FDF7B3FE31002800FEF7E6FF2F
:103F580029002000194AFEF7A5FA3A00290028008E
:103F6800FDF7C6FE3A0021002000FDF7B7FE290044
:103F780020002200FEF796FA21002000FFF714FE29
:103F8800002817D0220029002000FEF78BFA200015
:103F9800FFF7B8FF019BDB7FDB09984203D12100C3
:103FA8002000FDF793FE280032002100FEF77AFA80
:103FB8000020FEBD01204042FBE7C0464C4A0008F5
:103FC80030B50D009FB0040050316846FFF7DEFEA3
:103FD8006A4629000AA8FEF765FA29006A4614A865
:103FE8002831FEF75FFA14A92000FFF74BFD0AA855
:103FF800FFF788FFE37FC0015840E0772821684633
:10400800FFF738FD0AA82821FFF734FD282114A856
:10401800FFF730FD1FB030BD10B5040090B010227E
:104028006846FDF7F3FD69462000FFF7C9FE402109
:104038006846FFF71FFD10B010BD00000300F0B583
:104048000D00754C2033A544190003920400082282
:10405800BAA80293FDF7DAFD29001AA8FFF764FF52
:10406800002804D0012040426C4B9D44F0BD210043
:1040780042A8FFF759FF0028F4D1BAA8FFF7FEFAC3
:104088000028EFD192AA1AA96AA8FFF72EFC1AA94C
:10409800BAA8FFF74DFBBAAA6AA992A8FFF768FB6E
:1040A80092A9E2A8FFF744FBFC2421000398FFF73C
:1040B800D9FA002802D1013C8442F6D10122FC251C
:1040C800013404AB5242E4B2DC701A809A702900C1
:1040D8000298FFF7C7FA002802D1013D8542F6D1C0
:1040E8000121013505AAEBB24942D37011809170C4
:1040F8001D1CA34200D2251C1AA8EDB2FFF706FB2F
:104108001AA908006AAAFFF7F0FB2A000321039BFB
:1041180004A8FFF741FC2A0007000521029B05A817
:10412800FFF73AFC0600002F39DDA0237F105F431C
:10413800BAAAD2191AA90800FFF71AFB002E4EDDF9
:10414800782276107243364BD21810AB009306AB28
:104158001AA90800FFF76DFB013DD1D242A992A828
:10416800FFF7E6FA1AA9080092AAFFF701FB1AA9B5
:10417800080042AAFFF7B9FB1AA9080042AAFFF7EC
:10418800B4FB1AA9080042AAFFF7AFFB1AA96AA84C
:10419800FFF716FF23496AA8FFF75DFC64E7002FC5
:1041A800CCD0A023FC0FE419641064425C43BAAF7E
:1041B80039199CA8FDF783FD21002831791892A8A8
:1041C800FDF77DFD210050317918A6A87834FDF758
:1041D80076FD3919B0A8FDF779FD92AAAAE7002E55
:1041E800BAD07823F40FA4195B4264105C430C4BDB
:1041F8009CA8E4182100FDF762FD210092A828314F
:10420800FDF75DFD2100A6A85031FDF75FFD10AB5D
:10421800009392AA06AB9BE7D4FBFFFF2C04000097
:10422800444600080046000810B5FCF715FC0028B5
:1042380001D0FCF7B9FC30BFFDE7030082189342B8
:1042480000D1704719700133F9E7000070B50026F6
:104258000C4C0D4D641BA410A64209D1002600F099
:104268004BF80A4C0A4D641BA410A64205D170BD38
:10427800B300EB5898470136EEE7B300EB58984780
:104288000136F2E79C4A00089C4A0008A04A000848
:104298009C4A0008002310B59A4200D110BDCC5C9E
:1042A800C4540133F8E70000F0B50F001104090CFD
:1042B800060C050404000800C6462D0C9C46130C89
:1042C800684371435D435E436D18030C5B1900B589
:1042D800994202D980214902761800041D0C000C6D
:1042E8001B04181863467A435C43AD19A118491991
:1042F80080BCB846F0BDC046F8B5C046F8BC08BC9E
:104308009E467047F8B5C046F8BC08BC9E46704744
:1043180001B40248844601BC604700BF0900002080
:1043280020000000B71DC104FFFFFFFF20010000AF
:10433800FFFFFFFF00000000000000000000000079
:104348000000000000000000000000000000000065
:104358000000000000000000010000000200000052
:104368000300000004000000060000000700000031
:10437800080000000900000022AE28D7982F8A42C2
:10438800CD65EF23914437712F3B4DECCFFBC0B582
:10439800BCDB8981A5DBB5E938B548F35BC2563982
:1043A80019D005B6F111F1599B4F19AFA4823F926C
:1043B80018816DDAD55E1CAB420203A398AA07D810
:1043C800BE6F7045015B83128CB2E44EBE8531240A
:1043D800E2B4FFD5C37D0C556F897BF2745DBE7264
:1043E800B196163BFEB1DE803512C725A706DC9BC9
:1043F800942669CF74F19BC1D24AF19EC1699BE4AE
:10440800E3254F388647BEEFB5D58C8BC69DC10FC7
:10441800659CAC77CCA10C2475022B596F2CE92D27
:1044280083E4A66EAA84744AD4FB41BDDCA9B05CBF
:10443800B5531183DA88F976ABDF66EE52513E98B0
:104448001032B42D6DC631A83F21FB98C82703B0A0
:10445800E40EEFBEC77F59BFC28FA83DF30BE0C67D
:1044680025A70A934791A7D56F8203E05163CA062F
:10447800706E0E0A67292914FC2FD246850AB727C1
:1044880026C9265C38211B2EED2AC45AFC6D2C4DFA
:10449800DFB3959D130D3853DE63AF8B54730A65F4
:1044A800A8B2773CBB0A6A76E6AEED472EC9C28150
:1044B8003B358214852C72926403F14CA1E8BFA2AB
:1044C800013042BC4B661AA89197F8D0708B4BC24A
:1044D80030BE5406A3516CC71852EFD619E892D1D2
:1044E80010A96555240699D62A20715785350EF4EA
:1044F800B8D1BB3270A06A10C8D0D2B816C1A419FE
:1045080053AB4151086C371E99EB8EDF4C77482727
:10451800A8489BE1B5BCB034635AC9C5B30C1C3973
:10452800CB8A41E34AAAD84E73E363774FCA9C5BB0
:10453800A3B8B2D6F36F2E68FCB2EF5DEE828F742B
:10454800602F17436F63A57872ABF0A11478C88405
:10455800EC39641A0802C78C281E6323FAFFBE9040
:10456800E9BD82DEEB6C50A41579C6B2F7A3F9BE9B
:104578002B5372E3F27871C69C6126EACE3E27CAB5
:1045880007C2C021C7B886D11EEBE0CDD67DDAEAD6
:1045980078D16EEE7F4F7DF5BA6F1772AA67F00675
:1045A800A698C8A2C57D630AAE0DF9BE04983F114E
:1045B8001B471C13350B711B847D0423F577DB28FF
:1045C8009324C7407BABCA32BCBEC9150ABE9E3C09
:1045D8004C0D109CC4671D43B6423ECBBED4C54C9F
:1045E8002A7E65FC9C297F59ECFAD63AAB6FCB5FE3
:1045F8001758474A8C19446C01000000000000005D
:1046080000000000000000000000000000000000A2
:1046180000000000000000001B132C0AA3E59CED1D
:10462800A72963085D210621EBFFFFFFFFFFFFFFBE
:10463800FFFFFFFFFFFFFFFF0F000000853B8C011E
:10464800BDF124FFF825C30160DC3700B74C3EFFFD
:10465800C3423D00324CA401E1A44CFF4C3DA3FFF2
:10466800753E1F00519140FF76410E00A273D6FFA0
:10467800068A2E007CE6F4FF0A8A8F00341AC200EC
:10468800B8F44C00818F2901BEF413FF7BAA7AFF8E
:104698006281440079D5930056651EFFA1679B008F
:1046A8008C5943FFEFE5BE01430BB500C6F089FE08
:1046B800EE45BCFF4397EE00132A6CFFE5557101E8
:1046C800324487FF116A0900326701FF5001A801CF
:1046D80023981EFF10A8B9013859E8FF65D2FC00DD
:1046E80029FA4700CCAA4FFF0E2EEFFF504DEF00DE
:1046F800BDD64BFF118DF90026504CFFBE557500F5
:1047080056E4AA009CD8D001C3CFA4FF96424CFF20
:10471800AFE110FF8D5062014CDBF200C6A27200BF
:104728002EDA98009B2BF1FE9BA068FF33BBA500F7
:104738000211AF004254A001F73A1E00234135FE92
:1047480045ECBF002D86F501A37BDD00206E14FF2C
:104758003417A500BAD64700E9B06000F2EF360179
:1047680039598A00530054FF88A064005C8E78FE93
:10477800687CBE00B5B13EFFFA29550098822A012F
:1047880060FCF60097973FFEEF853E0020389C00BE
:104798002DA7BDFF8E85B3018356D300BBB396FE0C
:1047A800FAAA0EFFD2A34E0025349700634D1A00D3
:1047B800EE9CD5FFD5C0D101492E540014412901E2
:1047C80036CE4F00C98392FEAA6F18FFB12132FE80
:1047D800AB26CBFF4EF77400D1DD99008580B2017E
:1047E8003A2C1900C9273B01BD13FC0031E5D20161
:1047F80075BB7500B5B3B8010072DB00305E93007D
:10480800F52938007D0DCCFEF4AD77002CDD20FEB7
:1048180054EA1400F9A0C601EC7EEAFF2F63A8FE53
:10482800AAE299FF66B3D800E28D7AFF7A4299FE30
:10483800B6F58600E3E41901D639EBFFD8AD38FFA9
:10484800B5E7D20077809DFF815F88FF6E7E3300D9
:1048580002A9B7FF078262FE45B05EFF7404E30158
:10486800D9F291FFCAAD1F01690127FF2EAF45009C
:10487800E42F3AFFD7E045FECF3845FF10FE8BFF07
:1048880017CFD4FFCA147EFF5FD560FF09B021009F
:10489800C805CFFFF12A80FE2321C0FFF8E5C40137
:1048A80081117800FB6797FF073470FF8C3842FF4F
:1048B80028E2F5FFD94625FEACD609FF4843860114
:1048C80092C0D6FF2C26700044B84BFFCE5AFB008E
:1048D80095EB8D00B5AA3A0074F4EF005C9D0200D8
:1048E80066AD6200E98960017F31CB00059B9400C9
:1048F800179409FFD37A0C0022861AFFDBCC8800B4
:10490800860829FFE0532BFE5519F7006D7F00FE3E
:10491800A9883000EE77DBFFE7ADD500CE12FEFEAA
:1049280008BA07FF7E0907016F2A48006F34ECFEBA
:10493800603F8D0093BF7FFECD4EC0FF0E6AED0134
:10494800BBDB4C00AFF3BBFE6959AD0055195901EB
:10495800A2F394000276D1FE219E09008BA32EFFBC
:104968005D4628006C2A8EFE6FFC8EFF9BDF900050
:1049780033E5A7FF49FC9BFF5E740CFF98A0DAFFA4
:104988009CEE25FFB3EACFFFC500B3FF9AA48D00C4
:10499800E1C468000A2319FED1D4F2FF61FDDEFEEE
:1049A800B865E500DE127F01A48887FF1ECF8CFE64
:1049B8009261F30081C01AFEC95421FF6F0A4EFFAD
:1049C8009351B2FF04041800A1EED7FF068D210011
:1049D80035D70EFF29B5D0FFE78B9D00B3CBDDFFA0
:1049E800FFB97100BDE2ACFF7142D6FFCA3E2DFF90
:1049F800664008FF4EAE10FE857544FFEDD3F55CAA
:104A08001A631258D69CF7A2DEF9DE1400000000E3
:104A180000000000000000000000001059F1B2FE84
:104A28000AE5A6FF7BDD2AFE1E14D400528003008F
:104A380030D1F300777940FF32E39CFF006EC50167
:104A4800671B9000B67859FF8572D300BD6E15FFBD
:104A58000F0A6A0029C0010098E879FFBC3CA0FF52
:104A68009971CEFF00B7E2FEB40D48FFB0A00EFE6C
:104A7800D3C986FF9E188F007F693500600CBD0082
:104A8800A7D7FBFF9F4C80FE6A65E1FF1EFC040070
:104A9800920CAE00E1050008B5050008C3B270B578
:104AA80004000D00002B41D1214A01339A43802391
:104AB8001B059A4209D380211E4B49021B689B059E
:104AC800DB0D5B18DB02934230D800F043F8002876
:104AD8002CD1194B194A1A6180225969D2020A430A
:104AE8005A61EFF3108172B62200661CFF362D1B47
:104AF800A85801C2B242FBD1E022D2021869104282
:104B080011D15A690E4802405A6181F3108800F0A9
:104B180019F800280AD122682B599A4206D1043480
:104B2800B442F8D170BDBFF34F8FE7E70120F9E732
:104B380009000020E075FF1F00200240FB43000031
:104B4800FFFFFBFF01B40248844601BC604700BF79
:104B5800FD06000801B40248844601BC604700BF56
:104B6800C50600080024F400B50E0008B50E0008BC
:104B7800B50E0008B50E0008B50E0008B50E000801
:104B8800B50E0008B50E0008B50E0008B50E0008F1
:104B9800B50E0008B50E0008B50E0008B50E0008E1
:104BA800B50E0008B50E0008B50E0008B50E0008D1
:104BB800B50E0008B50E0008B50E0008B50E0008C1
:104BC800B50E0008B50E0008B50E0008B50E0008B1
:104BD800B50E0008B50E0008B50E0008B50E0008A1
:104BE800B50E0008B50E0008B50E0008B50E000891
:104BF800B50E0008B50E0008B50E0008B50E000881
:104C0800B50E0008B50E0008B50E0008B50E000870
:104C1800B50E0008B50E0008B50E0008B50E000860
:104C2800B50E0008B50E0008B50E0008B50E000850
:104C3800B50E0008B50E0008B50E0008B50E000840
:104C4800FFFFFFFFFFFFFFFFFFFFFFFFFFFFFFFF6C
:104C5800FFFFFFFFFFFFFFFFFFFFFFFFFFFFFFFF5C
:104C6800FFFFFFFFFFFFFFFFFFFFFFFFFFFFFFFF4C
:104C7800FFFFFFFFFFFFFFFFFFFFFFFFFFFFFFFF3C
:084C8800FFFFFFFFFFFFFFFF2C
:1077E000FFFFFFFFFFFFFFFFFFFFFFFFFFFFFFFFA9
:1077F000FFFFFFFFFFFFFFFFFFFFFFFFFFFFFFFF99
:0400000508001315C7
:00000001FF
