:020000040800F2
:10000000000003203D1200087F0D0008810D00084C
:10001000830D0008850D0008870D00080000000012
:10002000000000000000000000000000890D000832
:100030008B0D000800000000190200087D0A00086E
:100040008D0D00088F0D0008910D0008490600086D
:10005000930D0008950D0008F50D0008110E00081D
:100060002D0E0008490E0008650E0008F50F000867
:10007000091000081D100008311000084510000884
:10008000591000086D10000829120008970D00088B
:10009000990D0008AD0D0008AF0D0008810E000895
:1000A000B10D00080D11000839110008F90B000806
:1000B0004D110008B30D0008891100089D110008BA
:1000C000B1110008C5110008D9110008ED11000890
:1000D0000112000815120008B50D0008B70D000840
:1000E000290F0008E1050008B90D0008BB0D000844
:1000F000BD0D0008D10D0008E50D000861110008D4
:1001000075110008E70D0008E90D0008EB0D000867
:10011000ED0D0008EF0D0008F10D0008811000083A
:1001200095100008A9100008BD100008D1100008A3
:0C013000E5100008F9100008F30D0008AD
:100200004F50454EC846000000000008950400000D
:0402100000000000EA
:1002180071B61EF0040F0CBFEFF30880EFF30980EE
:100228001EF0100F08BF20ED108A20E9F04F1EF0D5
:10023800040F08BF80F308880F4A116808600F4A46
:1002480011680868B0E8F04F1EF0100F08BFB0EC56
:10025800108AEFF314811EF0040F07BF21F0030189
:1002680080F3088841F0020180F3098881F314883B
:10027800BFF36F8F61B670476411002060110020D2
:100288000348044B834202D0034B03B1184770471D
:10029800CC000020CC000020000000000548064BE0
:1002A8001B1AD90F01EBA301491002D0034B03B16C
:1002B80018477047CC000020CC0000200000000048
:1002C80010B5064C237843B9FFF7DAFF044B13B196
:1002D8000448AFF300800123237010BDD000002034
:1002E800000000001C35000808B5054B1BB1054986
:1002F8000548AFF30080BDE80840FFF7CFBF00BF57
:1003080000000000D40000201C35000870B5044629
:1003180016460D4600F0F2FC234B62685A61A2684B
:100328001A612278102A12D0202A12D0082A01D164
:1003380010229A60227B1C49102A0CD0202A27D030
:10034800082A0CD18B6843F020038B6007E0082251
:10035800EFE70022EDE79A6842F040029A608B6866
:10036800627B43EAC21343F001038B60BFF34F8FF4
:100378000D4B2E44B5420FD118682269237D504099
:100388002BB12378102B0BD0202B00D100BA70BDD5
:100398008B6843F06003D8E715F8012B1A70E9E77A
:1003A80040BA80B2F3E700BF00300240000300F11A
:1003B80000600123043840F2014250F82310013153
:1003C80004D101339342F8D10120704700207047CF
:1003D80008B5022000F0FAFB0C4B1A6912F4A02FA2
:1003E80004D15A69002A04DB002008BDBFF34F8FEF
:1003F800F3E7074A9A6002F188329A605B69002B3A
:10040800F2DA022000F0ECFB0120EEE70040005891
:10041800230167450D4B44F2FB3210B51C691A6184
:100428001A6912F4A02F0DD15A6942F00042022035
:100438005A6100F0D5FB44F2FA331C4214BF012084
:10044800002010BDBFF34F8FEAE700BF00400058FF
:10045800204BB3F8E030C3F38803834270B50546F8
:1004680008D9012000F08CFBFFF7B2FF20B1002073
:1004780000F086FB012070BD174B44F2FB321A6175
:100488005A6922F4FF625A615A6942EAC50242F087
:1004980002025A615A6942F480325A611C6914F4A2
:1004A800A02414D15A6922F002025A61BFF34F8F77
:1004B800FFF7B0FF0646204600F062FB002ED9D1B8
:1004C8002846FFF773FF80F00100C0B2D3E7BFF3FF
:1004D8004F8FE3E70075FF1F004000580A4BB3F841
:1004E800E030C3F38803834210B5044607D9FFF709
:1004F8005DFF30B92046BDE81040FFF7A9BF0120D5
:1005080010BD0020FCE700BF0075FF1F00F500408C
:1005180001EB00307047006870470000430770B572
:1005280004460E46154601D0012070BDFFF750FF66
:100538000028F9D1124B44F2FB321A615A6942F091
:1005480001025A61EFF3108172B626606560BFF34D
:100558004F8F1A6912F4A02FF9D15A6922F00102BB
:100568005A6181F31088FFF755FF0028DCD1236812
:10057800B342D9D16068401B18BF0120D5E700BF3E
:100588000040005870B505460C46FFF761FF78B982
:10059800C4EB053504F5805605F10065D4E9001271
:1005A8002819FFF7BBFF18B90834B442F6D170BD5B
:1005B8000120FCE7064B1A6842F480721A601A6838
:1005C800D205FCD5034BCA225A6253225A6270479D
:1005D8000004005800280040144908B5CB68DA0523
:1005E8000AD5FFF7E7FFCB6823F48073CB60FF23BE
:1005F8004B620F4B01221A700C49CB689B050AD538
:10060800FFF7D8FFCB6823F40073CB60FF234B625E
:10061800084B01221A70084B4FF40032DA60074B7E
:100628004FF40072C3F8842108BD00BF00280040C1
:10063800EE000020ED0000200008005800E100E076
:100648000C4908B5CB685B050AD5FFF7B3FFCB6843
:1006580023F48063CB60FF234B62074B01221A709F
:10066800064B4FF48012DA60054B0822C3F880214C
:1006780008BD00BF00280040EC000020000800581A
:1006880000E100E02DE9F0418046CEB00F4607209A
:100698000021FFF73BFFA0F1200633461A78FF2A16
:1006A80028D101338342F9D100204EB0BDE8F08152
:1006B80000F058FB3A1BB2F5805F04EB080128BF35
:1006C8004FF4805218A801F0A3F904F58054BC42F5
:1006D800EED308A918A801F09FF908A9684602F006
:1006E800D4FD6A463146284602F0E0FDB0FA80F0B3
:1006F8004009DAE707F1080518A8454401F030F980
:100708002022294618A801F083F92022314618A88A
:1007180001F07EF90024DAE72DE9F843DFF8B0901C
:10072800B9F8E030C3F38803834280460E46154685
:1007380002D80220BDE8F8830021FFF7E7FE214B2D
:10074800D0F800229A420746F3D1D0F80412B1F546
:10075800057FEED9B9F8E000C0F38800A0EB0800E7
:10076800000348388142E4D811F00301E1D10820A0
:10077800D7F80882FFF7CAFE80451FD1124BD7F879
:100788000C221B68C3F30B039A4219D1D7F8042231
:100798000E483946FFF7BAFD8046D7F804023844B8
:1007A800FFF7B9FE4045C4D116B1D7F8043233601B
:1007B8000DB90020BEE7C5F80080FAE70420B9E7C4
:1007C8000320B7E74F50454E002004E038350008B5
:1007D8000075FF1F13B5044601AA69460820FFF7F4
:1007E8009BFF50B96268009B9A4204D1E068019B64
:1007F800C31A5842584102B010BD0020FBE773B538
:1008080000230D4601A906460193FFF785FF04461C
:1008180048B901463046FFF779FE0199FFF732FFE4
:10082800A04208BF05240DB1019B2B60204602B0F1
:1008380070BD0000F7B500F069FA00210720FFF746
:1008480065FE484B02689A42054615D00024464B7F
:10085800464AC3E90024002211460820FFF7CFFFCB
:10086800014600287BD10820FFF750FE044600F01F
:100878005FFA204603B0F0BD806807280CD8022430
:100888002846FFF7A7FF002C66D1002832D00124A4
:100898000720FFF723FEDAE7354BB3F8E030C3F360
:1008A80088039842EBD201AA694680B2FFF7A7FFF6
:1008B80004460028E4D16A68009B9A42DFD1EA68BE
:1008C800019B9A42DBD1024601460820FFF797FFB9
:1008D8000028D5D121462889FFF718FE2146D0F8EF
:1008E80010620820FFF712FED0F810329E4238BF7F
:1008F8000624C5E7D5E9013603F5825307331C0BF7
:10090800C3F30F330733B2B293429FDA0820FFF7DD
:10091800E5FD00289AD1A4B22CB92846FFF75AFF62
:100928000028B4D192E7671E00F01CFA16FA87F087
:10093800002180B2FFF7EAFD4FF4805201460D48CE
:1009480002F0DAFDE01D0B4980B2FFF71BFE00281C
:100958007FF47CAFBCB2DFE7002898D198E7002489
:1009680085E700BF424F4F540000002052505254B8
:100978000075FF1FF00000200349D0E900328860AD
:1009880083F308881047FEE700ED00E008B5034B45
:100998001B6803B1984772B6FEE700BFF01000204D
:1009A80008B5FFF7F3FF0000F0B5054BD3E90045A4
:1009B800D3E90001D3E90067BD42F7D12946F0BD6C
:1009C8007011002008B5EFF305831BB10F48FFF73E
:1009D800E7FF08BD0E4B93F86820002AF9D01A6E7D
:1009E8000C4903EBC2000860596E01328A4228BFE5
:1009F80000221A6603EBC203074A1360074A5368CA
:100A080043F080535360BFF34F8FE2E7503500083F
:100A1800F4100020641100206011002000ED00E0B7
:100A2800094B1A6810B504461AB9BDE81040FFF71B
:100A3800BBBFFFF7B9FF531E2344B3FBF2F31818EB
:100A480041F1000110BD00BF6811002038B5D0E9A0
:100A5800005455EA0403024601D1002038BDFFF7CF
:100A6800A3FFA842A141F8D300200021C2E9000158
:100A78000120F3E710B5044CD4E90023501C43F1DE
:100A88000001C4E9000110BD70110020164AD2F817
:100A9800883043F47003C2F888304FF0B0436FF4E5
:100AA80082701A6842F001021A604FF4E0229A60DC
:100AB8001968A2F1A26202440A401A60D3F894208D
:100AC80022F00502C3F89420D3F8982022F00102FE
:100AD800C3F89820054ADA601A611A6822F480225D
:100AE8001A6000229A61704700ED00E000100422AD
:100AF80037B504460846FFF793FFCDE90001237890
:100B080003F0FF0513B1284603B030BD6846FFF770
:100B18009DFF0028F7D1FFF755FFF0E770B5144D9A
:100B280095F850400CB9FF2070BD124C1026267263
:100B3800A4F80900E2721AB104F10C0002F0DCFC1E
:100B48000023AB700C4B4FF400329A60EFF3108126
:100B580072B65A6822F400325A6081F31088074846
:100B68004FF47A71FFF7C4FF0028DCD0A07BDBE7E5
:100B7800781100206C080320000C00587A1100201E
:100B8800074B93F8503007B543B18DF807000122A1
:100B98000DF107014FF66940FFF7C0FF03B000BD34
:100BA800781100204FF0B0422030136D43F4002339
:100BB8001365044B53F82000034BC31A584258419D
:100BC800704700BF001400580004008010B50446A8
:100BD8002046FFF7E7FF00B110BDFFF7F3FEF7E788
:100BE800024B4FF4806243F82020704700140058ED
:100BF800054B6FF01E021A61044B1B6813B1044ABF
:100C080010681847704700BF002C0140D011002021
:100C1800CC1100200D4B984213D80D4B984212D896
:100C28000C4B984294BF002001200B4A136823F014
:100C3800070303431360136803F007038342FAD1E1
:100C480070470320F1E70220EFE700BF006CDC02E9
:100C58000048E8010024F40000400058084B094A05
:100C6800984294BF4FF480604FF40070136823F4E7
:100C7800C0630343136053695B05FCD4704700BF2E
:100C8800808D5B00000400584FF0B0420849D2F84C
:100C98000831884294BF0020012023F0F00343EA82
:100CA800C013C2F80831D2F808319B03FBD570474E
:100CB8000048E8014FF0B0431A6842F001021A6098
:100CC8001A6822F0F00202431A601A689207FCD5EB
:100CD8009A6822F003029A604FF0B042936813F0CA
:100CE8000C0FFBD1136823F0807323F48033136057
:100CF800014B084619607047080000204FF0B042C9
:100D0800936C43F4805393647047000008B5074818
:100D1800FFF7A4FF0548FFF77DFF0448FFF7B4FF7E
:100D2800BDE808400149B020FFF7C4BF006CDC02F1
:100D380010B50A480A49FFF791FF6020FFF7BAFF8C
:100D48004FF0B0420446136823F480731360FFF732
:100D58009BFF2046FFF75EFF204610BD0024F400ED
:100D680000093D00024B4AF6AA221A60704700BFEC
:100D7800003000407047FEE7FEE7FEE7FEE7FEE7CB
:100D8800FEE7FEE7FEE7FEE7FEE7FEE7FEE7FEE733
:100D9800024B034A1B681068184700BF1400002064
:100DA800D8110020FEE7FEE7FEE7FEE7FEE7FEE7D4
:100DB800FEE7FEE7024B034A1B681068184700BFAE
:100DC80010000020D4110020024B034A1B68106851
:100DD800184700BF0C000020D4110020FEE7FEE7F2
:100DE800FEE7FEE7FEE7FEE7FEE7FEE7034B01222C
:100DF800DA60034B034A1B6810681847000800585C
:100E0800C400002080120020034B0222DA60034B4A
:100E1800034A1B681068184700080058C0000020E3
:100E28007C120020034B0422DA60034B034A1B6840
:100E38001068184700080058BC00002078120020ED
:100E4800034B0822DA60034B034A1B6810681847F3
:100E580000080058B800002074120020034B10222C
:100E6800DA60034B034A1B681068184700080058EB
:100E7800B4000020701200201E4BDA68920610B5EC
:100E880006D52022DA601C4B1C4A1B68106898475C
:100E9800184BDA68540606D54022DA60184B194A0E
:100EA8001B6810689847134BDA68100606D580222D
:100EB800DA60154B154A1B68106898470D4BDA68BD
:100EC800D10507D54FF48072DA60114B114A1B68BF
:100ED80010689847074BDA68920509D54FF40072F5
:100EE800DA600D4B0D4A1B681068BDE810401847C2
:100EF80010BD00BF00080058B00000206C12002090
:100F0800AC00002068120020A80000206412002015
:100F1800A400002060120020A00000205C12002025
:100F2800254BDA68510510B507D54FF48062DA60B1
:100F3800224B234A1B68106898471F4BDA68120532
:100F480007D54FF40062DA601E4B1F4A1B68106811
:100F58009847194BDA68D40407D54FF48052DA6001
:100F68001A4B1B4A1B6810689847134BDA689004A1
:100F780007D54FF40052DA60164B174A1B68106801
:100F880098470D4BDA68510407D54FF48042DA6070
:100F9800124B134A1B6810689847074BDA6812040B
:100FA80009D54FF40042DA600E4B0F4A1B681068EF
:100FB800BDE81040184710BD000800589C000020EC
:100FC800581200209800002054120020940000209D
:100FD80050120020900000204C1200208C000020AD
:100FE800481200208800002044120020024B034AC7
:100FF8001B681068184700BF8400002040120020BA
:10100800024B034A1B681068184700BF8000002085
:101018003C120020024B034A1B681068184700BFA7
:101028007C00002038120020024B034A1B6810681D
:10103800184700BF7800002034120020024B034AF2
:101048001B681068184700BF740000203012002089
:10105800024B034A1B681068184700BF7000002045
:101068002C120020024B034A1B681068184700BF67
:101078006C00002028120020024B034A1B681068ED
:10108800184700BF6800002024120020024B034AC2
:101098001B681068184700BF640000202012002059
:1010A800024B034A1B681068184700BF6000002005
:1010B8001C120020024B034A1B681068184700BF27
:1010C8005C00002018120020024B034A1B681068BD
:1010D800184700BF5800002014120020024B034A92
:1010E8001B681068184700BF540000201012002029
:1010F800024B034A1B681068184700BF50000020C5
:101108000C120020064A074B10B51B681068984758
:10111800054B064A1B681068BDE81040184700BF19
:10112800081200204C00002044000020001200207B
:10113800024B034A1B681068184700BF4000002094
:10114800FC110020024B034A1B681068184700BFB7
:101158004800002004120020024B034A1B68106854
:10116800184700BF3C000020F8110020024B034A3A
:101178001B681068184700BF38000020F4110020D1
:10118800024B034A1B681068184700BF3400002050
:10119800F0110020024B034A1B681068184700BF73
:1011A80030000020F0110020024B034A1B68106831
:1011B800184700BF2C000020EC110020024B034A06
:1011C8001B681068184700BF28000020EC11002099
:1011D800024B034A1B681068184700BF2400002010
:1011E800E8110020024B034A1B681068184700BF2B
:1011F80020000020E4110020024B034A1B681068FD
:10120800184700BF1C000020E0110020024B034AD1
:101218001B681068184700BF18000020DC11002068
:10122800024B034A1B681068184700BFC80000201B
:101238008412002008B5134B134A9A601349144BC3
:10124800144A8B4210D3144B144A15498B4210D3BD
:10125800144B154A0021934210D3FFF717FC02F0F4
:1012680027F902F015F9FEE752F8040B43F8040BCE
:10127800E7E752F8040B43F8040BE7E743F8041BCD
:10128800E9E700BF00ED00E000000008CC00002006
:10129800080000208C3C000800000320503D000896
:1012A80077090320D00000208812002010B50838E4
:1012B80001EBC202914200D110BD4C680B6824BA00
:1012C80040F8084F1BBA43600831F3E72DE9F04FA7
:1012D800A7B0036810934368119383681293C36897
:1012E8001393036914934369159383691693C36928
:1012F8001793036A1893436A1993836A1A93C36A04
:101308001B93036B1C93436B1D93836B1E93C36BDF
:101318001F9300F1B8030D931E9B0C931C9B09931C
:101328001D9B0A931A9B07931B9B0893169B069376
:10133800179B0B93149B0493159B0593129B029385
:10134800139B0393DDE91063DDE918BADFF83084F5
:10135800DDF87CE0019300F138094FEA9A324FEA50
:101368009A4404EB8B3402EB8B4262404FEACA5436
:1013780004EB5B244FEA9B314FEA9B4CD8E900759C
:101388000CEB8A3C624001EB8A4159F8084F4FEA5E
:10139800CB5381EA0C0103EB5A234B40D9F80410D4
:1013A8003C1945EB01051919099B23EA0B070A9B10
:1013B80023EA0A04079B42EB05020BEA0303089D94
:1013C8007B40CB180AEA05050C9984EA050442EB30
:1013D80004025B1801994FEA86744FEA167505EB0B
:1013E800011504EB91044FEA81774FEA117101EB83
:1013F800061107EB960787EA0107019984EA0504B5
:101408004FEA466505EBD1154FEA416101EBD6116C
:1014180084EA050487EA0107049D02994EEB02025B
:1014280081EA050E0399059D81EA050C0199049D41
:101438000CEA010C029929400C91039D05990D4075
:101448000C990EEA060E8EEA010161188CEA050570
:1014580047EB0504069DDDF828E013EB050C0B9D12
:1014680042EB05055B180499069105990B910999BA
:101478000C910D9942EB0402494508F1080840F027
:101488008181BE490D9100210C910C9910310C916C
:101498000D990E9100F138010691099922910A9946
:1014A80023910799099108990A910499209105991E
:1014B80021910299049103990591019903916FF083
:1014C8000101CDE907BA0296E346AA461E460192F3
:1014D8000B910B9901F00F04083400EBC40150F88C
:1014E800347049684FEAD1484FEAC10E08EB4738D3
:1014F8000EEB577EFC0C4FEAC70988EA0E0EBF09AF
:1015080009EB517904EB413447EA81678EEA911E71
:10151800069984EA0904674051F8084F069149681A
:101528003F194EEB010E0699C1E9007E0B99A1F116
:101538000D0404F00F04083400EBC40150F83480A3
:10154800D1F804904FEA590101EBC8710F914FEAA5
:10155800182101EB096124914FEA192101EB086177
:1015680025914FEA5804249904EBC97461402491E9
:10157800259C0F994FEAD8186140249C48EA49688D
:1015880084EA0804E41981EAD911069F4EEB0101A7
:10159800C7E900410B9FA7F1050E0EF00F0E0EF1E3
:1015A800080E00EBCE0750F83EE07F6814EB0E04FF
:1015B80041EB07010F9106990F9F4F604FEA953E47
:1015C800AF0C07EB8C370EEB8C4E0C604FEA9C3857
:1015D80009994FEA9C498EEA070EEF0509EB853910
:1015E80007EB5C2708EB854888EA09088EEA070EAE
:1015F8004FEACC5921EA0C070A9909EB552988EAE0
:10160800090821EA050907990CEA010C089987EAF3
:101618000C070D400E9989EA050518EB07074EEBF4
:10162800050E51F8085F0E9149687F194EEB010EBF
:101638003F190F99229C41EB0E013F19239C4FEA59
:10164800127544EB01014FEA837E1C0F4FEA827C3E
:101658000EEB920E0CEB930C04EB021405EB031546
:1016680084EA0E0485EA0C054FEA436E4FEA426CA1
:101678000EEBD21E0CEBD31C84EA0E0885EA0C098B
:10168800029C049D84EA050C039C059D84EA050ED2
:101698000CEA030C0EEA020E029B049A134022463F
:1016A8002A40209C8CEA030318EB03038EEA02020B
:1016B80049EB020217EB040C219C41EB0405FB18D3
:1016C80041EB02020B9901310B9104992091059984
:1016D8002191099922910A9923910B990E2963D195
:1016E8000D9980310D910C9940297FF4CEAE109957
:1016F800CB18119941EB0202C0E90032129B019A02
:1017080003999E19139B43EB0203C0E90263029AF3
:10171800149B9B18159A42EB0102C0E90432049A03
:10172800169B05999B18179A42EB0102C0E90632ED
:10173800189B199A13EB0C0342EB0505C0E9083511
:101748001A9B1B9A13EB0B0342EB0A02C0E90A32FD
:10175800079A1C9B9B181D9A089942EB0102C0E945
:101768000C32099A1E9B0A999B181F9A42EB010298
:10177800C0E90E3227B0BDE8F08F00BFE0350008A1
:10178800683500080799099108990A910299049106
:101798000399059101990296CDE907BA0391E346A9
:1017A800AA461E460192D8E50799099108990A9117
:1017B800029904910399059101990296CDE907BA16
:1017C8000391E346AA461E46019282E6D0F8D0303D
:1017D80023F00702DB4303F00703DB00104410B5D6
:1017E800A3F12002C3F1200421FA04F401FA02F261
:1017F80022439940D0E910430C431343C0E91043F6
:1018080010BD2DE9F843D0F8D0707B0704460E468A
:1018180015460AD07F4207F00707974228BF1746A8
:101828008846CE19464540D1ED1BD4F8D08018F033
:101838007F0F18D0C8F1000707F07F07AF4294BFA9
:10184800FF08EF0828F0070304F1400031463A4644
:10185800184408EBC708FFF729FD06EBC706C4F8CC
:10186800D080A5EBC705B8F1800F29D025F07F07F8
:10187800374404F140084FF00009B74240D115F051
:101888007F0610D03946F20804F14000FFF70EFD3C
:10189800D4F8D03005F078052B443D443744AF42A6
:1018A800C4F8D03051D1BDE8F88318F8011B2046A0
:1018B800FFF78CFFD4F8D0300133C4F8D030B1E74B
:1018C800D4E9323213F5806042F1000113F5806FDC
:1018D80072F1FF32C4E9320106D3D4E93032013360
:1018E80042F10002C4E930322046FFF7EFFC002144
:1018F800C4F8D010802204F1400001F0D1FDB5E712
:10190800102231464046FFF7D1FCD4E9323213F5B4
:10191800806042F1000113F5806F72F1FF32C4E973
:10192800320106D3D4E93032013342F10002C4E96E
:1019380030322046FFF7CAFCC4F8D090802200213C
:10194800404601F0ADFD803697E715F8011B2046AB
:10195800FFF73CFFD4F8D0300133A0E700000000C7
:101968001BA3D3E90023C0E900231BA3D3E9002369
:10197800C0E902231AA3D3E90023C0E904231AA368
:10198800D3E90023C0E9062319A3D3E90023C0E95A
:10199800082319A3D3E90023C0E90A2318A3D3E92C
:1019A8000023C0E90C2318A3D3E900230021C0E9D0
:1019B8000E2300220023C0E93023C0E93223C0F8F7
:1019C800D0108022403001F06BBD00BFAFF3008023
:1019D80008C9BCF367E6096A3BA7CA8485AE67BB3A
:1019E8002BF894FE72F36E3CF1361D5F3AF54FA565
:1019F800D182E6AD7F520E511F6C3E2B8C68059B41
:101A08006BBD41FBABD9831F79217E1319CDE05BF8
:101A18000AB1FFF7F6BE704770B5D0F8D06004463B
:101A28000D4626B980223146403001F039FD80212B
:101A38002046FFF7CBFED4E93202F3001B1852F11F
:101A480000024FF0000128BF0121C4E9323231B150
:101A5800D4E93032013342F10002C4E930326F2E4A
:101A680008D92046FFF732FC7022002104F140001B
:101A780001F016FDD4E93023C4E92C23D4E932233C
:101A88002046C4E92E23FFF721FC2946A4F10803C8
:101A980004F1380553F8082F5868C870060E0E7000
:101AA800060C4E70060A100E0871100C48719D4203
:101AB8004FEA12208E708871CA7101F10801E9D1CC
:101AC8002046D821BDE8704001F03BB983784278C0
:101AD80000781B0443EA02231843704700687047E4
:101AE80008B50246FFF7FAFF0346101DFFF7F6FF99
:101AF8000146184608BD0B0A017043700B0C090E0D
:101B08008370C170704708B501EB8202031F084655
:101B1800FFF7E4FF0431914243F8040FF7D108BD01
:101B280010B500EB82020C1F54F8041FFFF7E3FF07
:101B380004309042F8D110BD2DE9F04188460546A1
:101B4800FFF7CEFF064640460C46FFF7C9FF464062
:101B580005F108004C40FFF7C3FF074608F10800ED
:101B68000D46FFF7BDFF7840694030432143BDE88B
:101B7800F081F8B506460F46FFF7DEFF05460C462E
:101B880006F1100007F11001FFF7D6FF28432143A3
:101B9800F8BD2822002101F083BC012340F8043B52
:101BA8002422002101F07CBC002351F8232040F8B6
:101BB800232001330A2BF8D17047002351F8232042
:101BC800524240F8232001330A2BF7D1704730B531
:101BD800002351F8234052F823502C4440F8234066
:101BE80001330A2BF5D130BD30B5002351F823401D
:101BF80052F82350641B40F8234001330A2BF5D1D7
:101C080030BD13B552420B6801920268019C5340E3
:101C18002340534003604B684268019C5340234073
:101C2800534043608B688268019C53402340534073
:101C38008360CB68C268019C534023405340C36013
:101C480002690B69019C5340234053400361426978
:101C58004B69019C534023405340436182698B691F
:101C6800019C5340234053408361C269019CCB6966
:101C7800534023405340C361026A0B6A019C53409E
:101C8800234053400362426A4B6A019C53402340FD
:101C98005340436202B010BD2DE9F04F044689B0AD
:101CA8000846FFF71BFF8246081D9346FFF70EFF05
:101CB8008301C81D0393FFF709FF430101F10A00DF
:101CC8000193FFF703FFC70001F10D00FFF7FEFEC8
:101CD800860001F11000FFF701FF029001F11400E6
:101CE800FFF7F4FE4FEAC01801F11700FFF7EEFE08
:101CF8004FEA401901F11A00FFF7E8FE030101F16C
:101D08001D000493FFF7E2FE6FF07F4141FA0BF1EB
:101D180001408B0000251AF1007145F10002890E7F
:101D280041EA821105938806039BBAEB000A4FEA41
:101D3800911C6CEB4C0B921613EB010C42F1000258
:101D480016F1007045F10005800E40EA8510830603
:101D5800F31A029E4FEA901161EB4101AD16361855
:101D680045F100051CF1807E42F100024FEA5E6EEB
:101D78004EEAC21E5016ACEB4E620692019A12EB66
:101D88000E02019240F1000016F1807245F1000C3C
:101D9800520E42EACC1218EB0208A6EB4265019AF1
:101DA80007954FEA6C6C4CF1000C12F1007240F18F
:101DB8000000920E42EA8012BD184FEAA060029518
:101DC80040F1000018F100754CF1000C4FEA956ED7
:101DD8004EEA8C1E029D19EB0E094FEAAC6C4CF1D1
:101DE800000C15F1807740F100007F0E47EAC0171C
:101DF800DB1941F1000119F18075049803934CF146
:101E0800000C6D0E45EACC1540194FEA6C6C4CF18C
:101E1800000C13F10076049041F10001B60E10F1A8
:101E2800007046EA81164CF1000C0599069B800E5D
:101E380040EA8C1009184FEAAC6C05914CF1000C83
:101E480011F180714CF1000C490E41EACC114FF0B0
:101E5800130CC1FB0CAB1AF1007C4BF1000B4FEAE1
:101E68009C6C4CEA8B1CAAEB8C6A13EB0C0C019B48
:101E7800C4F804C0A3EB826CC4F800A0C4F808C07E
:101E8800029BA3EB4762039BE260A3EB866323619B
:101E9800079B9E19A8EB8E63A361049B6661A3EB65
:101EA8008060059B2062A9EB4565A3EB4161E56174
:101EB800616209B0BDE8F08F2DE9F04F0D680C693B
:101EC80082FB055815F1007748F1000CBF0E47EA70
:101ED8008C178BB04FEAAC6EBB060CF07C4C82FBC7
:101EE8000446EB1A4CEA971C069368EB0C0314F1B2
:101EF800007C4D6807934FEA9C6C46F100034CEA5E
:101F0800831CC2FB057E4FEA8C65641B4FEAA36AFB
:101F18004D6903F07C4343EA9C1366EB0306C2FB5E
:101F280005CA17F180754EF1000E6D0E45EACE1503
:101F3800A7EB456708974FEA6E638F681CF1807EB0
:101F48004AF1000A4FEA5E6EC2FB07534EEACA1E08
:101F58008F690095ACEB4E6509954FEA6A6A75463C
:101F6800C2FB075A0195009DCF6815F1007943F12E
:101F780000034FEA996949EA83194D469B16C2FB4B
:101F880007530295019DCF6915F1007C4AF1000ABB
:101F98004FEA9C6C4CEA8A1C65464FEAAA6AC2FB67
:101FA800075A0395029D15F1807843F100034FEA23
:101FB800586848EAC31814EB080446EB6366039BA9
:101FC80013F180774AF1000A7F0E0B6A496A47EAE3
:101FD800CA173D464FEA6A6AC2FB035A14F1007EEB
:101FE80046F100034FEA9E6E15F100764EEA831E15
:101FF8004FEA96664AF1000346EA831604959B1653
:102008003546C2FB015315F1807143F10003490EB7
:1020180041EAC3114FF0130BA1FB0B2A5B160BFB14
:1020280003AA069B0595D218079B4AEB030A12F1EF
:1020380000734AF1000A9B0E43EA8A13A2EB8362FB
:102048000260089AD3184360009BA3EB8965029B42
:102058008560A3EB4863C360099B13EB0E034361E0
:10206800019BA3EB8C638361039BA3EB4767049BF2
:10207800C761A3EB8666059B0662A4EB8E64A3EB9F
:102088004161046141620BB0BDE8F08F2DE9F04F6A
:10209800A3B00B6800934B6807938B680193CB68D8
:1020A80008930B6902934B690993D1E906930A9344
:1020B800D1E908530B9393680393D3680493136986
:1020C800059353690C939369D2E900CE0E93D369B3
:1020D8001593136A1793536A1893079B5B000F9322
:1020E800089B0F995B001093099B5B0011930A9B57
:1020F8005B0012930B9B5B001393039B4FF0130B36
:102108000BFB03F31993049B0BFB03F6059B0BFBDB
:1021180003F316930C9B0BFB03F314930E9B0BFB1F
:1021280003F30D93159B0BFB03F30693179B0BFB14
:1021380003F2189B82460BFB03F3009881FB031400
:10214800C0FB0C140198C0FB02141098069FC0FB3A
:10215800071402980D9FC0FB07141198149FC0FB29
:1021680007141698029FC9FB00141298C0FB0614A6
:102178001998C5FB001413980BFB0EF8C0FB081444
:10218800CDE91A1407990098199C8CFB0118C0FB1B
:102198000E180198C3FB00180898C2FB001806988F
:1021A800C0FB07180D98099FC0FB071814980A9FD1
:1021B800C0FB09181698C0FB0718C6FB05180B9F2B
:1021C8004046C4FB071019910F99009C1C90039876
:1021D80081FB0E17C4FB00170198CCFB0017109861
:1021E800C3FB00170298119CC2FB00170698C0FB9E
:1021F80004170D98129CC0FB09171498C0FB04170C
:102208001698009CC0FB05171398C6FB0017CDE96C
:102218001D170398079981FB00160498C4FB001644
:1022280001980A9CC0FB0E160898CCFB0016029871
:10223800C3FB00160998C2FB00160698C0FB0916D6
:102248000D98C0FB041614980B9CC0FB0516169835
:10225800C0FB0416169104980F99009C1F9681FBE9
:1022680000610598C4FB0061039C0198C0FB0461F0
:102278001098129CC0FB0E610298CCFB006111986B
:10228800C3FB00610698C2FB0961C0FB04610D989D
:10229800C0FB0561DDE91340C0FB04610798059C9C
:1022A800B04680FB04670C98009CC4FB006701984B
:1022B800049CC0FB04670898039CC0FB0467029851
:1022C8000B9CC0FB0E670998CCFB00670A98C3FB00
:1022D8000967C2FB00670698C0FB05670D98C0FB3D
:1022E80004670F980C9C14970D9680FB04670E9852
:1022F800009CC4FB00670198059CC0FB046710980C
:10230800049CC0FB0467DDE90204C0FB0467119864
:10231800139CC0FB0E671298CCFB0967C3FB0067D0
:102328000698C2FB0567C0FB046707980E9C2097B8
:10233800069680FB04671598009CC4FB006701980B
:102348000C9CC0FB04670898059CC0FB04670298B6
:10235800049CC0FB04670998039CC0FB04670A98A7
:10236800009CC9FB0E67CCFB00670B98C3FB056795
:10237800C2FB006715980F9A219682FB00261798D2
:10238800C4FB002601980E9CC0FB042610980C9CE8
:10239800C0FB04260298059CC0FB04261198049CE7
:1023A800C0FB04260398009CC9FB00261298C0FBBA
:1023B8000E261398CCFB0526C3FB00260F92079B1D
:1023C800179A189883FB0232C4FB00321046019C0E
:1023D800159AC4FB0230089A0E9CC2FB0430029A7C
:1023E8000C9CC2FB0430059C099AC2FB0430049A79
:1023F800039CC9FB02300A9AC2FB04300B9A1A9C50
:10240800C5FB0E30CCFB02309C461A9B059013F19D
:10241800007E1B9B4FEA9E6E43F100004EEA801E31
:102428004FEA8E62A21A079200F07C431B9A43EA95
:102438009E1362EB03030893199B13EB0E0E1C9B70
:1024480043EBA06018F1007541F10003AD0E45EAB9
:10245800831503F07C44AA06B8EB020244EA9514FB
:1024680061EB04010D9C6519149C44EBA3681EF1F3
:10247800807440F10000640E44EAC014AEEB44637B
:1024880009931D9B1B1900931E9B43EB606015F17C
:10249800807448F10003640E44EAC314A5EB446554
:1024A8000A95069D2C190194209C44EB6363009CBB
:1024B80014F1007440F100004FEA946E169C4EEA45
:1024C800801E14EB0E0402941F9C44EBA060019C38
:1024D80014F1007543F10003219CAD0E45EA831504
:1024E80014EB0509029C47EBA36314F1807740F1D4
:1024F80000007F0E47EAC017D21941EB606119F15D
:1025080080740F98039243F10003640E44EAC314E5
:1025180010EB040846EB636312F1007641F1000109
:1025280018F1007043F10003800E40EA8310B60EE4
:1025380046EA81161CEB00010491059941EBA3635F
:10254800049911F1807143F10003490E41EAC31166
:10255800A1FB0BC25B160BFB032B079B089A1CEB1A
:1025680003034BEB020B13F1007C4BF1000B4FEA1A
:102578009C6C4CEA8B1CA3EB8C63CAF80030099B5B
:1025880013EB0C03CAF80430009BA3EB8E63CAF864
:102598000830029BA3EB4767039BCAF80C70A3EBB8
:1025A8008662CAF810200A9B9E19019BCAF814601B
:1025B800A3EB8565049BCAF81850A9EB4464A8EB03
:1025C8008060A3EB4161CAF81C40CAF82000CAF831
:1025D800241023B0BDE8F08F2DE9F04F8246D1E9F1
:1025E800024095B0D1E900230790D1E90490039007
:1025F800D1E906B00490086A496A08915900019126
:1026080061000691079905904900009103994900D6
:1026180002910499490009910499262000FB01F8C8
:102628000599132606FB0BF54E43089900FB01FCA0
:1026380003994843590081FB0C17C2FB02174FEA64
:10264800420E3A466700C7FB0612009FC7FB0812F6
:102658004FEA4907C7FB0512039FC7FB00120A91FF
:10266800009F8CFB0410CEFB0310C6FB0710029FD3
:10267800C8FB0910C5FB07100C915900009F81FB8E
:102688000331CEFB0431CCFB07314FEA4907C6FBC7
:102698000731029FC8FB0731C5FB0B31CDE90D316E
:1026A800019B079D83FB0431CEFB0531CCFB09312F
:1026B800C6FB0731C8FB0B31CDE90F31DDE900312D
:1026C80081FB0331CEFB0931C4FB04314FEA4B05D2
:1026D800049CCCFB0731C6FB0531C8FB04310B93C6
:1026E800019B039C83FB0935C4FB0E35DDE90647D6
:1026F800C4FB0735099C069FCCFB0B35C6FB04358C
:10270800CDE91135DDE9014384FB0334CEFB0B34FD
:10271800079DC7FB0934009FC7FB0534099DCCFB07
:102728000534059DC6FB05340793019B049D83FB77
:102738000B63CEFB0563069D039FC5FB0763009DE6
:10274800029FC5FB0963059DCCFB05631393099D97
:10275800019B039683FB0568059DCEFB0568069DD6
:10276800C5FB0B68009DC5FB0768C9FB0968089D88
:102778004746CCFB0567059D099783FB057C089DAB
:10278800049BCEFB057C069DC5FB037C009BC3FB1D
:102798000B7C029BC9FB037C0A9B049713F100770F
:1027A800E3464FEA976742F1000C47EA8C174FEA75
:1027B80087680CF07C4EB3EB08034EEA971E05932E
:1027C80062EB0E0306930C9BDF190B9B40EBAC608E
:1027D80013F1007C41F1000E4FEA9C6C4CEA8E1C10
:1027E8004FEA8C629A1A0EF07C48119B48EA9C18B2
:1027F80061EB080113EB0C0C129B43EBAE6517F170
:10280800807E40F100004FEA5E6E4EEAC01EA7EBE4
:102818004E6308930D9B13EB0E0300930E9B43EB43
:1028280060601CF1807745F100057F0E47EAC51707
:10283800ACEB47630A93079BDB190193009B44EBBE
:10284800656413F1007540F100000F9B4FEA956E27
:102858004EEA801E13EB0E030293109B43EBA0601D
:10286800019B13F1007544F10004039BAD0E45EA8A
:10287800841513EB0509139B43EBA463029C14F125
:10288800807740F100007F0E47EAC017D21941EB6C
:10289800606119F1807443F10003640E0998039292
:1028A80044EAC31416EB040840EB636312F10076A4
:1028B80041F10001B60E18F1007046EA811643F1A5
:1028C80000030499800E40EA8310091804914BEB29
:1028D800A36311F1807143F10003490E41EAC3116A
:1028E8001322A1FB02CB5B1602FB03BB059B069AD6
:1028F8001CEB03034BEB020B13F1007C4BF1000BB9
:102908004FEA9C6C4CEA8B1CA3EB8C63CAF8003032
:10291800089B13EB0C03CAF80430009BA3EB8E63EF
:10292800CAF80830029BA3EB4767039BCAF80C70F0
:10293800A3EB86620A9BCAF810209E19019BCAF86D
:102948001460A3EB8565049BCAF81850A9EB44648E
:10295800A8EB8060A3EB4161CAF81C40CAF82000CC
:10296800CAF8241015B0BDE8F08F0029A1BFCB101C
:1029780001F00701C05C0841ACBF00F00100002075
:102988007047000070B50A4E041F00F11C020025B4
:10299800012056F8041B54F8043FC9435B1845EB63
:1029A80005011B1841F10000A242F2D170BD00BF21
:1029B800EC3B0008F8B5044608460F46FFF7E2FF6F
:1029C80000220546DFF834C0C017C5F1000E1646D0
:1029D8005CF8043B57F822102EEA03035B1846EB19
:1029E80006015B1944F8223002F1010240EB0105AF
:1029F800082A4FF00000EBD1F8BD00BFEC3B0008FF
:102A080010B50446FFF7C5F804F12800FFF7C5F82C
:102A180004F15000FFF7C1F804F17800BDE8104058
:102A2800FFF7B7B838B50A460C462831FFF7CFF894
:102A380005462830FFF7D8F804F1500105F1500099
:102A4800FFF7B2F804F1780105F17800024ABDE811
:102A58003840FFF71BBB00BF0C3C00082DE9F043D2
:102A680095B0044617460E460A4668462831FFF7D1
:102A7800AEF80AA8FFF7B8F83A4669466846FFF77D
:102A880005FB0AA907F128020846FFF7FFFA0AAA78
:102A9800694604F12800FFF79AF82046FFF7A4F8E2
:102AA80006F1500204F150001146FFF790F807F1C3
:102AB800500204F15001FFF7E9FA07F1780206F134
:102AC800780104F17800FFF7E1FA04F1780204F1E3
:102AD80050016846FFF77BF80AA8FFF785F804F16C
:102AE8002802214604F17800FFF7D0FA0AAA214605
:102AF8002046FFF7CBFA04F128016A460846FFF79B
:102B0800C5FA0AAA694604F15000FFF7BFFA15B0E2
:102B1800BDE8F0832DE9F84F0A9D0646934618460E
:102B28000F460A4628311C46FFF751F82846FFF79A
:102B38005BF85A4621462046FFF7A8FA0BF128020F
:102B480029462846FFF7A2FA2A46214606F1280018
:102B5800FFF73DF83046FFF747F807F150021146F6
:102B680006F15000FFF733F80BF1500207F1780136
:102B780006F17800FFF78AFA06F1780206F15001AB
:102B88002046FFF724F82846FFF72EF806F128021A
:102B9800314606F17800FFF779FA2A463146304681
:102BA800FFF774FA06F1280122460846FFF76EFA85
:102BB8002A46214606F15000BDE8F84FFFF766BAED
:102BC8002DE9F0471446804604F128078946104647
:102BD800FFF702FD09F128013846FFF7FDFC09F16E
:102BE800500104F15000FFF7F7FC04F1500104F123
:102BF80050000222FFF760F909F12802494604F162
:102C08007800FEF7E4FF04F1780108F17800FFF797
:102C1800E3FC2246394604F17800FEF7D8FF38462F
:102C2800FEF7E2FF04F1780208F178012046FEF78A
:102C3800DBFF3A4604F1500104F15000FEF7D4FFDF
:102C480004F1500221464046FFF720FA3A4604F1C3
:102C5800780108F12800FFF719FA04F15002394603
:102C680008F15000FFF712FA04F17802214608F142
:102C78007800BDE8F047FFF709BA2DE9F84F994603
:102C8800C3789342054688460CD111464846FFF75B
:102C98006CFE561E044631464846FFF766FE8442DF
:102CA80009D1EE70B5F9003093420CBF95F90200D6
:102CB8000020BDE8F88F571C4745A8BF474607F1D5
:102CC800FF3A04FA0AF4A2EB070864424FF0000B3B
:102CD8004646DA4520DCD11B4846FFF746FE20442D
:102CE8004142014011F0F00F14BF0124002411F0FB
:102CF800CC0F14BF012300235B0011F0AA0F43EA95
:102D0800840302F1010118BF43F00103C91B1944F0
:102D180018412980A870C4E708F1010841464846CF
:102D2800FFF723FE00FA0BF004440BF1010BD0E788
:102D380008B5FEF71EFF0843B0FA80F040090138D5
:102D480008BD00231A468B4200D17047C254013394
:102D5800F9E770B50D4604460FCD8AB06E460FC62A
:102D68000FCD0FC695E80300132202FB01F303F110
:102D7800807386E803005B166A46694600200D6882
:102D88002B444D68013005EBA36505284FEA6563C0
:102D980001F10801F3D113214B43002011680B44C2
:102DA80023F07C4111605168013001EBA3614B169F
:102DB800052821F07E41516002F10802EED1DDE9DB
:102DC8000012204641EA8261FEF795FE029DE90461
:102DD80041EA9211201DFEF78EFE039A510341EA43
:102DE800553104F10800FEF786FE0499D20C04F16F
:102DF8000C0042EA8111FEF77EFEDDE9051204F1BE
:102E0800100041EA4261FEF776FE079DE90441EAB7
:102E1800D21104F11400FEF76EFE089A110341EA7C
:102E2800553104F11800FEF766FE0999120D42EAC1
:102E3800811104F11C00FEF75EFE28216846FFF7A9
:102E480080FF0AB070BD10B590B00C4601466846C8
:102E5800FFF77FFF214608A8FFF77BFF08A9684610
:102E6800FFF766FF202104466846FFF76AFF0DEB6F
:102E78000100FFF766FF601C10B010BD2DE9F0419E
:102E88009EB0064668460C46FFF7A6FB69460AA8A8
:102E9800FFF7A2FB0AA90846FFF79EFB0AAA1046FD
:102EA8002146FFF7F3F80AAA69466846FFF7EEF8E5
:102EB80069466846FFF790FB6A460AA96846FFF725
:102EC800E5F869460AA8FFF787FB04250AA908461A
:102ED800FFF782FB013DF9D16A460AA96846FFF768
:102EE800D5F869460AA8FFF777FB09250AA9084615
:102EF800FFF772FB013DF9D10AA908466A46FFF7B8
:102F0800C5F80AA914A8FFF767FB132514A90846F2
:102F1800FFF762FB013DF9D10AAA104614A9FFF791
:102F2800B5F80AA90846FFF757FB09250AA9084674
:102F3800FFF752FB013DF9D16A460AA96846FFF737
:102F4800A5F869460AA8FFF747FB31250AA90846EC
:102F5800FFF742FB013DF9D10AA908466A46FFF787
:102F680095F80AA914A8FFF737FB632514A90846A2
:102F7800FFF732FB013DF9D10AAA104614A9FFF761
:102F880085F80AA90846FFF727FB31250AA908464C
:102F9800FFF722FB013DF9D16A460AA96846FFF707
:102FA80075F869466846FFF717FB69466846FFF7F4
:102FB80013FB224669466846FFF768F869460AA87F
:102FC800FFF70AFB0AA922460846FFF75FF814A88C
:102FD800FEF7DFFD14A92046FFF735FF044614A8C5
:102FE800FEF7DBFD14A90AA8FFF72DFF14A98046F8
:102FF8000846FEF7E2FD0AA8FFF725FF1349074632
:1030080014A8FEF7DAFD01460AA8FFF71CFF694677
:1030180005460E4A3046FFF739F847EA050282F0BE
:10302800010269463046FEF7ECFD28216846FFF7A5
:1030380088FE0DEB0100FFF784FE14A8FFF781FE60
:1030480044EA080038431EB0BDE8F0815C3C000843
:1030580030B58BB0044668460D46FFF7BDFA6946A1
:103068006846FFF70BFF69466846FFF7B5FA2A4638
:1030780069462046FFF70AF828216846FFF761FEEF
:103088000BB030BD2DE9F04F9DB00C4601900021EA
:10309800642203A803AFDFF8D48000F001FA04F13A
:1030A8003C0A39460020251F58F8046BAE468C466A
:1030B8000022DCF800305EF8049F4FF0000BE6FBBE
:1030C800093B9B184BF10002F2454CF8043BF0D148
:1030D800013009280A6401F10401E4D10021202209
:1030E80003A800F0DDF903AB00210020D3F84090DD
:1030F800DFF87C809E468446C1F10806DEF8002091
:1031080058F804AB4FF0000BE9FB0A2B12EB0C024A
:1031180000F101004BF1000CB0424EF8042BEDD148
:103128000131082903F10403DFD11C3401210020F7
:103138003A6855F8043FD2439B1840EB00025B18ED
:1031480042F10001AC4247F8043BF1D103A908461B
:10315800FFF730FC0198082203A9FEF7E1FC64217F
:1031680003A8FFF7EEFD1DB0BDE8F08F0838000892
:10317800EC3B000810B588B001466846FFF7E9FD4A
:10318800684620219DF80040FFF7DBFD04F00100B0
:1031980008B010BD2DE9F04104460122283004F1A1
:1031A80050078846FEF778FD3846FEF7F6FC04F12E
:1031B800280104F17800FFF70FFA1D4A04F178019D
:1031C8002046FEF763FF3A4604F1780104F17800DF
:1031D800FEF70AFD20462146FEF7F9FC04F17801C6
:1031E8002246FEF753FF21462046FFF747FED8B197
:1031F800224604F178012046FEF748FF2046FFF7F3
:10320800B9FF98F81F30B0EBD31F03D121462046F1
:10321800FEF7D3FC04F1780004F128022146FEF7FA
:1032280035FF0020BDE8F0814FF0FF30FAE700BF1E
:10323800343C000830B59FB004460D46684650310E
:10324800FFF706FF6A4629460AA8FEF71FFF6A46E7
:1032580005F1280114A8FEF719FF14A92046FFF765
:1032680078FD0AA8FFF786FFE37F83EAC0132821C9
:10327800E3776846FFF765FD0DEB0100FFF761FD99
:1032880014A8FFF75EFD1FB030BD10B590B0102236
:1032980004466846FEF737FC69462046FFF7F2FE0B
:1032A80040216846FFF74DFD10B010BD2DE9F047ED
:1032B800ADF5846D00F12008B8AF0D4604464146CF
:1032C800384692460822FEF71EFC294618A8FFF742
:1032D80061FF28B14FF0FF300DF5846DBDE8F08730
:1032E800214640A8FFF756FF0028F3D13846FFF7DC
:1032F80049FB0028EED190AA18A968A8FFF760FC3E
:1033080018A93846FFF78EFB3A4668A990A8FFF738
:10331800A5FB90A9E0A8FFF785FBFC2211465046C3
:10332800FFF723FB08B9013AF8D14FF6FF710132D4
:10333800D2B2ADF808104FF0FF318DF80B208DF8A0
:103348000A10FC2421464046FFF70FFB08B9013C50
:10335800F8D10134E4B24FF6FF71ADF80C10944285
:103368004FF0FF3118A88DF80F408DF80E1038BFB8
:103378001446FFF745FBDFF8149118A9084668AA18
:10338800FFF71EFC53462246032102A8FFF775FCEF
:1033980043460646052103A8FFF76FFC002E0546A5
:1033A80037DD7610A02202FB067218A90846FFF73F
:1033B80055FB002D4CDD0EAB6D107822009302FBFF
:1033C800059204AB18A90846FFF7A4FB013CD4D228
:1033D80040A990A8FFF726FB18A990AA0846FFF76E
:1033E8003DFB18A940AA0846FFF7EAFB18A940AA1E
:1033F8000846FFF7E5FB18A940AA0846FFF7E0FBD7
:1034080018A968A8FFF716FF1F4968A8FFF790FCDE
:1034180062E7CED006EBD6766FF09F0176104E436A
:10342800B9199AA8FEF7C0FB06F12801394490A8FB
:10343800FEF7BAFB06F150013944A4A8FEF7B4FB25
:1034480006F178013944AEA8FEF7B7FB90AAACE7BD
:10345800BCD005EBD5756FF077036D1005FB0395B0
:1034680029469AA8FEF7A0FB05F1280190A8FEF7C7
:103478009BFB05F15001A4A8FEF79FFB0EAB009340
:1034880090AA04AB9EE700BFE83700082C38000874
:1034980008B5FDF7CFF908B1FDF76EFA30BFFDE7C3
:1034A80002440346934200D1704703F8011BF9E731
:1034B80070B50D4B0D4C00261D1BB6EBA50F09D1A1
:1034C80000F028F80A4C0B4B00261D1BB6EBA50F85
:1034D80005D170BD54F8043B98470136EDE754F820
:1034E800043B98470136F1E7843C0008843C000817
:1034F800843C0008883C00080A44914200F1FF33EC
:1035080000D1704710B511F8014B03F8014F9142F3
:10351800F9D110BDF8B500BFF8BC08BC9E4670478D
:0C352800F8B500BFF8BC08BC9E46704718
:1035380020000000B71DC104FFFFFFFF20010000AD
:10354800FFFFFFFF000000006C65742829206361FD
:103558006C6C65642066726F6D20495352000000E0
:1035680022AE28D7982F8A42CD65EF239144377130
:103578002F3B4DECCFFBC0B5BCDB8981A5DBB5E9A2
:1035880038B548F35BC2563919D005B6F111F1596F
:103598009B4F19AFA4823F9218816DDAD55E1CABA0
:1035A800420203A398AA07D8BE6F7045015B831235
:1035B8008CB2E44EBE853124E2B4FFD5C37D0C55F0
:1035C8006F897BF2745DBE72B196163BFEB1DE80E8
:1035D8003512C725A706DC9B942669CF74F19BC1D9
:1035E800D24AF19EC1699BE4E3254F388647BEEF76
:1035F800B5D58C8BC69DC10F659CAC77CCA10C242E
:1036080075022B596F2CE92D83E4A66EAA84744A9F
:10361800D4FB41BDDCA9B05CB5531183DA88F976D7
:10362800ABDF66EE52513E981032B42D6DC631A80C
:103638003F21FB98C82703B0E40EEFBEC77F59BFF0
:10364800C28FA83DF30BE0C625A70A934791A7D5DB
:103658006F8203E05163CA06706E0E0A6729291447
:10366800FC2FD246850AB72726C9265C38211B2E8F
:10367800ED2AC45AFC6D2C4DDFB3959D130D3853BC
:10368800DE63AF8B54730A65A8B2773CBB0A6A76CF
:10369800E6AEED472EC9C2813B358214852C729265
:1036A8006403F14CA1E8BFA2013042BC4B661AA8E2
:1036B8009197F8D0708B4BC230BE5406A3516CC79B
:1036C8001852EFD619E892D110A96555240699D653
:1036D8002A20715785350EF4B8D1BB3270A06A1014
:1036E800C8D0D2B816C1A41953AB4151086C371EC3
:1036F80099EB8EDF4C774827A8489BE1B5BCB034DE
:10370800635AC9C5B30C1C39CB8A41E34AAAD84EBF
:1037180073E363774FCA9C5BA3B8B2D6F36F2E6886
:10372800FCB2EF5DEE828F74602F17436F63A5784C
:1037380072ABF0A11478C884EC39641A0802C78CFB
:10374800281E6323FAFFBE90E9BD82DEEB6C50A40D
:103758001579C6B2F7A3F9BE2B5372E3F27871C696
:103768009C6126EACE3E27CA07C2C021C7B886D1C7
:103778001EEBE0CDD67DDAEA78D16EEE7F4F7DF58F
:10378800BA6F1772AA67F006A698C8A2C57D630A21
:10379800AE0DF9BE04983F111B471C13350B711B66
:1037A800847D0423F577DB289324C7407BABCA329A
:1037B800BCBEC9150ABE9E3C4C0D109CC4671D4377
:1037C800B6423ECBBED4C54C2A7E65FC9C297F59A7
:1037D800ECFAD63AAB6FCB5F1758474A8C19446C52
:1037E80001000000000000000000000000000000D0
:1037F80000000000000000000000000000000000C1
:103808001B132C0AA3E59CEDA72963085D2106215B
:10381800EBFFFFFFFFFFFFFFFFFFFFFFFFFFFFFFC4
:103828000F000000853B8C01BDF124FFF825C30182
:1038380060DC3700B74C3EFFC3423D00324CA40168
:10384800E1A44CFF4C3DA3FF753E1F00519140FF82
:1038580076410E00A273D6FF068A2E007CE6F4FF9E
:103868000A8A8F00341AC200B8F44C00818F2901EB
:10387800BEF413FF7BAA7AFF6281440079D59300D6
:1038880056651EFFA1679B008C5943FFEFE5BE01FB
:10389800430BB500C6F089FEEE45BCFF4397EE002A
:1038A800132A6CFFE5557101324487FF116A09003C
:1038B800326701FF5001A80123981EFF10A8B90123
:1038C8003859E8FF65D2FC0029FA4700CCAA4FFF17
:1038D8000E2EEFFF504DEF00BDD64BFF118DF900B6
:1038E80026504CFFBE55750056E4AA009CD8D0015E
:1038F800C3CFA4FF96424CFFAFE110FF8D50620189
:103908004CDBF200C6A272002EDA98009B2BF1FE67
:103918009BA068FF33BBA5000211AF004254A00171
:10392800F73A1E00234135FE45ECBF002D86F50110
:10393800A37BDD00206E14FF3417A500BAD647001C
:10394800E9B06000F2EF360139598A00530054FF9C
:1039580088A064005C8E78FE687CBE00B5B13EFF2E
:10396800FA29550098822A0160FCF60097973FFED5
:10397800EF853E0020389C002DA7BDFF8E85B30142
:103988008356D300BBB396FEFAAA0EFFD2A34E000D
:1039980025349700634D1A00EE9CD5FFD5C0D101A0
:1039A800492E54001441290136CE4F00C98392FE96
:1039B800AA6F18FFB12132FEAB26CBFF4EF7740079
:1039C800D1DD99008580B2013A2C1900C9273B0145
:1039D800BD13FC0031E5D20175BB7500B5B3B80164
:1039E8000072DB00305E9300F52938007D0DCCFEB7
:1039F800F4AD77002CDD20FE54EA1400F9A0C601CE
:103A0800EC7EEAFF2F63A8FEAAE299FF66B3D8000E
:103A1800E28D7AFF7A4299FEB6F58600E3E4190151
:103A2800D639EBFFD8AD38FFB5E7D20077809DFFD8
:103A3800815F88FF6E7E330002A9B7FF078262FEAE
:103A480045B05EFF7404E301D9F291FFCAAD1F01CE
:103A5800690127FF2EAF4500E42F3AFFD7E045FE66
:103A6800CF3845FF10FE8BFF17CFD4FFCA147EFF57
:103A78005FD560FF09B02100C805CFFFF12A80FE9D
:103A88002321C0FFF8E5C40181117800FB6797FF87
:103A9800073470FF8C3842FF28E2F5FFD94625FE2F
:103AA800ACD609FF4843860192C0D6FF2C26700089
:103AB80044B84BFFCE5AFB0095EB8D00B5AA3A00EF
:103AC80074F4EF005C9D020066AD6200E989600154
:103AD8007F31CB00059B9400179409FFD37A0C0023
:103AE80022861AFFDBCC8800860829FFE0532BFECC
:103AF8005519F7006D7F00FEA9883000EE77DBFFCF
:103B0800E7ADD500CE12FEFE08BA07FF7E09070111
:103B18006F2A48006F34ECFE603F8D0093BF7FFE34
:103B2800CD4EC0FF0E6AED01BBDB4C00AFF3BBFE10
:103B38006959AD0055195901A2F394000276D1FED6
:103B4800219E09008BA32EFF5D4628006C2A8EFE5D
:103B58006FFC8EFF9BDF900033E5A7FF49FC9BFFBE
:103B68005E740CFF98A0DAFF9CEE25FFB3EACFFF46
:103B7800C500B3FF9AA48D00E1C468000A2319FEAA
:103B8800D1D4F2FF61FDDEFEB865E500DE127F01EB
:103B9800A48887FF1ECF8CFE9261F30081C01AFEB5
:103BA800C95421FF6F0A4EFF9351B2FF0404180055
:103BB800A1EED7FF068D210035D70EFF29B5D0FF1E
:103BC800E78B9D00B3CBDDFFFFB97100BDE2ACFF11
:103BD8007142D6FFCA3E2DFF664008FF4EAE10FE6A
:103BE800857544FFEDD3F55C1A631258D69CF7A28D
:103BF800DEF9DE14000000000000000000000000F4
:103C08000000001059F1B2FE0AE5A6FF7BDD2AFE8E
:103C18001E14D4005280030030D1F300777940FF9E
:103C280032E39CFF006EC501671B9000B67859FF10
:103C38008572D300BD6E15FF0F0A6A0029C0010006
:103C480098E879FFBC3CA0FF9971CEFF00B7E2FE6F
:103C5800B40D48FFB0A00EFED3C986FF9E188F0092
:103C68007F693500600CBD00A7D7FBFF9F4C80FE25
:103C78006A65E1FF1EFC0400920CAE00F102000828
:103C8800C902000800093D007D0D00087D0D0008EF
:103C98007D0D00087D0D00087D0D00087D0D0008D4
:103CA8007D0D00087D0D00087D0D00087D0D0008C4
:103CB8007D0D00087D0D00087D0D00087D0D0008B4
:103CC8007D0D00087D0D00087D0D00087D0D0008A4
:103CD8007D0D00087D0D00087D0D00087D0D000894
:103CE8007D0D00087D0D00087D0D00087D0D000884
:103CF8007D0D00087D0D00087D0D00087D0D000874
:103D08007D0D00087D0D00087D0D00087D0D000863
:103D18007D0D00087D0D00087D0D00087D0D000853
:103D28007D0D00087D0D00087D0D00087D0D000843
:103D38007D0D00087D0D00087D0D00087D0D000833
:103D48007D0D00087D0D0008000000000000000047
:103D5800000000000000000000000000000000005B
:103D6800000000000000000000000000000000004B
:103D7800000000000000000000000000000000003B
:103D8800000000000000000000000000000000002B
:040000050800123DA0
:00000001FF
