:020000040800F2
:100000000000032001100008430B0008450B000806
:10001000470B0008490B00084B0B000800000000CC
:100020000000000000000000000000004D0B000870
:100030004F0B0008000000001502000881090008AD
:10004000510B0008530B0008550B0008450600082B
:10005000570B0008590B0008B90B0008D50B000816
:10006000F10B00080D0C0008290C0008B90D000860
:10007000CD0D0008E10D0008F50D0008090E00087F
:100080001D0E0008310E0008ED0F00085B0B000884
:100090005D0B0008710B0008730B0008450C00088D
:1000A000750B0008D10E0008FD0E0008FD0A0008BF
:1000B000110F0008770B00084D0F0008610F0008B2
:1000C000750F0008890F00089D0F0008B10F000888
:1000D000C50F0008D90F0008790B00087B0B00083A
:1000E000ED0C0008DD0500087D0B00087F0B000803
:1000F000810B0008950B0008A90B0008250F0008CC
:10010000390F0008AB0B0008AD0B0008AF0B00085F
:10011000B10B0008B30B0008B50B0008450E000832
:10012000590E00086D0E0008810E0008950E00089B
:0C013000A90E0008BD0E0008B70B000867
:100200004F50454E781B0000000000089504000088
:100210000000000071B61EF0040F0CBFEFF3088061
:10022000EFF309801EF0100F08BF20ED108A20E9BF
:10023000F04F1EF0040F08BF80F308880F4A1168C2
:1002400008600F4A11680868B0E8F04F1EF0100F00
:1002500008BFB0EC108AEFF314811EF0040F07BF43
:1002600021F0030180F3088841F0020180F309883E
:1002700081F31488BFF36F8F61B670475C11002063
:10028000581100200348044B834202D0034B03B1B2
:1002900018477047C8000020C80000200000000078
:1002A0000548064B1B1AD90F01EBA301491002D0D8
:1002B000034B03B118477047C8000020C800002056
:1002C0000000000010B5064C237843B9FFF7DAFFB1
:1002D000044B13B10448AFF300800123237010BD19
:1002E000C800002000000000EC10000808B5054B15
:1002F0001BB105490548AFF30080BDE80840FFF792
:10030000CFBF00BF00000000CC000020EC100008B0
:1003100070B5044616460D4600F002FC234B626899
:100320005A61A2681A612278102A12D0202A12D0AB
:10033000082A01D110229A60227B1C49102A0CD075
:10034000202A27D0082A0CD18B6843F020038B6029
:1003500007E00822EFE70022EDE79A6842F040024A
:100360009A608B68627B43EAC21343F001038B609F
:10037000BFF34F8F0D4B2E44B5420FD11868226941
:10038000237D50402BB12378102B0BD0202B00D194
:1003900000BA70BD8B6843F06003D8E715F8012BF5
:1003A0001A70E9E740BA80B2F3E700BF00300240BC
:1003B000000300F100600123043840F2014250F8CC
:1003C0002310013104D101339342F8D10120704749
:1003D0000020704708B5022000F07EFB0C4B1A6924
:1003E00012F4A02F04D15A69002A04DB002008BDB2
:1003F000BFF34F8FF3E7074A9A6002F188329A60A1
:100400005B69002BF2DA022000F070FB0120EEE7BE
:1004100000400058230167450D4B44F2FB3210B5F4
:100420001C691A611A6912F4A02F0DD15A6942F0A1
:10043000004202205A6100F059FB44F2FA331C4298
:1004400014BF0120002010BDBFF34F8FEAE700BFAB
:1004500000400058204BB3F8E030C3F388038342D8
:1004600070B5054608D9012000F010FBFFF7B2FF78
:1004700020B1002000F00AFB012070BD174B44F2B0
:10048000FB321A615A6922F4FF625A615A6942EAE0
:10049000C50242F002025A615A6942F480325A613E
:1004A0001C6914F4A02414D15A6922F002025A6182
:1004B000BFF34F8FFFF7B0FF0646204600F0E6FA85
:1004C000002ED9D12846FFF773FF80F00100C0B29B
:1004D000D3E7BFF34F8FE3E70075FF1F00400058DD
:1004E0000A4BB3F8E030C3F38803834210B50446E7
:1004F00007D9FFF75DFF30B92046BDE81040FFF790
:10050000A9BF012010BD0020FCE700BF0075FF1F40
:1005100000F5004001EB00307047006870470000B4
:10052000430770B504460E46154601D0012070BD44
:10053000FFF750FF0028F9D1124B44F2FB321A6149
:100540005A6942F001025A61EFF3108172B62660D7
:100550006560BFF34F8F1A6912F4A02FF9D15A6961
:1005600022F001025A6181F31088FFF755FF00283D
:10057000DCD12368B342D9D16068401B18BF012089
:10058000D5E700BF0040005870B505460C46FFF7A0
:1005900061FF78B9C4EB053504F5805605F10065B7
:1005A000D4E900122819FFF7BBFF18B90834B44288
:1005B000F6D170BD0120FCE7064B1A6842F4807248
:1005C0001A601A68D205FCD5034BCA225A6253221C
:1005D0005A6270470004005800280040144908B5CA
:1005E000CB68DA050AD5FFF7E7FFCB6823F4807301
:1005F000CB60FF234B620F4B01221A700C49CB6872
:100600009B050AD5FFF7D8FFCB6823F40073CB60B6
:10061000FF234B62084B01221A70084B4FF4003243
:10062000DA60074B4FF40072C3F8842108BD00BFA5
:1006300000280040E6000020E500002000080058E7
:1006400000E100E00C4908B5CB685B050AD5FFF76F
:10065000B3FFCB6823F48063CB60FF234B62074B6F
:1006600001221A70064B4FF48012DA60054B082203
:10067000C3F8802108BD00BF00280040E40000202E
:100680000008005800E100E02DE9F843DFF8B090E1
:10069000B9F8E030C3F38803834280460E4615461E
:1006A00002D80220BDE8F8830021FFF731FF214B7B
:1006B000D0F800229A420746F3D1D0F80412B1F5DF
:1006C000057FEED9B9F8E000C0F38800A0EB080080
:1006D000000348388142E4D811F00301E1D104203D
:1006E000D7F80882FFF714FF80451FD1124BD7F8C7
:1006F0000C221B68C3F30B039A4219D1D7F80422CA
:100700000E483946FFF704FE8046D7F80402384405
:10071000FFF703FF4045C4D116B1D7F80432336068
:100720000DB90020BEE7C5F80080FAE70420B9E75C
:100730000320B7E74F50454E002004E004110008A5
:100740000075FF1F13B5044601AA69460420FFF790
:100750009BFF50B96268009B9A4204D1E068019BFC
:10076000C31A5842584102B010BD0020FBE70000F8
:10077000F7B500210320FFF7CBFE3D4B02689A42FC
:10078000054612D000243B4B3B4A01A9C3E9002493
:1007900004200022FFF778FF0146002864D10420DE
:1007A00003B0BDE8F040FFF7B3BE806803280BD864
:1007B00002242846FFF7C6FF002C52D100B30124C3
:1007C0000320FFF78DFEDEE72C4BB3F8E030C3F3D8
:1007D00088039842ECD200236A4601A980B20193B3
:1007E000FFF752FF019B04460028E2D16A689A4253
:1007F000DED1EC68009BE41A18BF01246400D8E73E
:10080000D5E9013603F5825307331C0BC3F30F33CD
:100810000333B2B29342B5DA0420FFF761FE002839
:10082000B0D1A4B22CB92846FFF78CFF0028C6D15E
:10083000A8E7671E00F07CF916FA87F0002180B265
:10084000FFF766FE4FF4805201460D4800F040FC71
:10085000E01C0B4980B2FFF797FE002892D1BCB292
:10086000E0E70028ABD1ABE7002003B0F0BD00BF4C
:10087000424F4F5400000020525052540075FF1F49
:10088000E80000200349D0E90032886083F308883B
:100890001047FEE700ED00E008B5034B1B6803B10D
:1008A000984772B6FEE700BFE810002008B5FFF7D2
:1008B000F3FF0000F0B5054BD3E90045D3E9000193
:1008C000D3E90067BD42F7D12946F0BD6811002089
:1008D00008B5EFF305831BB10F48FFF7E7FF08BD2D
:1008E0000E4B93F86820002AF9D01A6E0C4903EBDE
:1008F000C2000860596E01328A4228BF00221A667F
:1009000003EBC203074A1360074A536843F080535E
:100910005360BFF34F8FE2E71C110008EC1000207A
:100920005C1100205811002000ED00E0094B1A680E
:1009300010B504461AB9BDE81040FFF7BBBFFFF77A
:10094000B9FF531E2344B3FBF2F3181841F1000121
:1009500010BD00BF6011002038B5D0E9005455EA41
:100960000403024601D1002038BDFFF7A3FFA842CF
:10097000A141F8D300200021C2E900010120F3E7E2
:1009800010B5044CD4E90023501C43F10001C4E924
:10099000000110BD68110020164AD2F8883043F4D7
:1009A0007003C2F888304FF0B0436FF482701A6859
:1009B00042F001021A604FF4E0229A601968A2F135
:1009C000A26202440A401A60D3F8942022F0050281
:1009D000C3F89420D3F8982022F00102C3F898209D
:1009E000054ADA601A611A6822F480221A6000222D
:1009F0009A61704700ED00E00010042237B504460C
:100A00000846FFF793FFCDE90001237803F0FF05C7
:100A100013B1284603B030BD6846FFF79DFF00289C
:100A2000F7D1FFF755FFF0E770B5144D95F850403A
:100A30000CB9FF2070BD124C10262672A4F80900D4
:100A4000E2721AB104F10C0000F042FB0023AB701B
:100A50000C4B4FF400329A60EFF3108172B65A6873
:100A600022F400325A6081F3108807484FF47A71FB
:100A7000FFF7C4FF0028DCD0A07BDBE7701100206B
:100A80006C080320000C005872110020074B93F8EB
:100A9000503007B543B18DF8070001220DF1070171
:100AA0004FF66940FFF7C0FF03B000BD7011002092
:100AB0004FF0B0422030136D43F400231365044B14
:100AC00053F82000034BC31A58425841704700BFE7
:100AD000001400580004008010B504462046FFF7BB
:100AE000E7FF00B110BDFFF7F3FEF7E7024B4FF44D
:100AF000806243F82020704700140058054B6FF0C7
:100B00001E021A61044B1B6813B1044A106818478F
:100B1000704700BF002C0140C8110020C411002004
:100B20004FF0B042936C43F48053936470470000DD
:100B3000024B4AF6AA221A60704700BF00300040FC
:100B40007047FEE7FEE7FEE7FEE7FEE7FEE7FEE7AB
:100B5000FEE7FEE7FEE7FEE7FEE7FEE7024B034A9D
:100B60001B681068184700BF10000020D01100203B
:100B7000FEE7FEE7FEE7FEE7FEE7FEE7FEE7FEE74D
:100B8000024B034A1B681068184700BF0C00002086
:100B9000CC110020024B034A1B681068184700BFA5
:100BA00008000020CC110020FEE7FEE7FEE7FEE78C
:100BB000FEE7FEE7FEE7FEE7034B0122DA60034BA8
:100BC000034A1B681068184700080058C00000203E
:100BD00078120020034B0222DA60034B034A1B68A1
:100BE0001068184700080058BC000020741200204C
:100BF000034B0422DA60034B034A1B681068184752
:100C000000080058B800002070120020034B082292
:100C1000DA60034B034A1B68106818470008005845
:100C2000B40000206C120020034B1022DA60034B4A
:100C3000034A1B681068184700080058B0000020DD
:100C4000681200201E4BDA68920610B506D52022E5
:100C5000DA601C4B1C4A1B6810689847184BDA680E
:100C6000540606D54022DA60184B194A1B681068F2
:100C70009847134BDA68100606D58022DA60154BC8
:100C8000154A1B68106898470D4BDA68D10507D5DF
:100C90004FF48072DA60114B114A1B681068984754
:100CA000074BDA68920509D54FF40072DA600D4BF4
:100CB0000D4A1B681068BDE81040184710BD00BF02
:100CC00000080058AC00002064120020A80000209A
:100CD00060120020A40000205C120020A000002070
:100CE000581200209C00002054120020254BDA6886
:100CF000510510B507D54FF48062DA60224B234AC4
:100D00001B68106898471F4BDA68120507D54FF427
:100D10000062DA601E4B1F4A1B6810689847194B27
:100D2000DA68D40407D54FF48052DA601A4B1B4AB4
:100D30001B6810689847134BDA68900407D54FF486
:100D40000052DA60164B174A1B68106898470D4B23
:100D5000DA68510407D54FF48042DA60124B134A27
:100D60001B6810689847074BDA68120409D54FF4DE
:100D70000042DA600E4B0F4A1B681068BDE8104055
:100D8000184710BD0008005898000020501200209D
:100D9000940000204C1200209000002048120020F7
:100DA0008C00002044120020880000204012002007
:100DB000840000203C120020024B034A1B6810688C
:100DC000184700BF8000002038120020024B034A61
:100DD0001B681068184700BF7C00002034120020F8
:100DE000024B034A1B681068184700BF78000020B8
:100DF00030120020024B034A1B681068184700BFDE
:100E0000740000202C120020024B034A1B6810685B
:100E1000184700BF7000002028120020024B034A30
:100E20001B681068184700BF6C00002024120020C7
:100E3000024B034A1B681068184700BF6800002077
:100E400020120020024B034A1B681068184700BF9D
:100E5000640000201C120020024B034A1B6810682B
:100E6000184700BF6000002018120020024B034A00
:100E70001B681068184700BF5C0000201412002097
:100E8000024B034A1B681068184700BF5800002037
:100E900010120020024B034A1B681068184700BF5D
:100EA000540000200C120020024B034A1B681068FB
:100EB000184700BF5000002008120020024B034AD0
:100EC0001B681068184700BF4C0000200412002067
:100ED000064A074B10B51B6810689847054B064A31
:100EE0001B681068BDE81040184700BF00120020C2
:100EF0004800002040000020F8110020024B034A67
:100F00001B681068184700BF3C000020F411002047
:100F1000024B034A1B681068184700BF44000020BA
:100F2000FC110020024B034A1B681068184700BFE1
:100F300038000020F0110020024B034A1B681068A3
:100F4000184700BF34000020EC110020024B034A78
:100F50001B681068184700BF30000020E81100200F
:100F6000024B034A1B681068184700BF2C00002082
:100F7000E8110020024B034A1B681068184700BFA5
:100F800028000020E4110020024B034A1B6810686F
:100F9000184700BF24000020E4110020024B034A40
:100FA0001B681068184700BF20000020E0110020D7
:100FB000024B034A1B681068184700BF1C00002042
:100FC000DC110020024B034A1B681068184700BF61
:100FD00018000020D8110020024B034A1B6810683B
:100FE000184700BF14000020D4110020024B034A10
:100FF0001B681068184700BFC40000207C12002046
:1010000008B5134B134A9A601349144B144A8B4288
:1010100010D3144B144A15498B4210D3144B154A64
:101020000021934210D3FFF7B7FC00F02DF800F039
:1010300023F8FEE752F8040B43F8040BE7E752F8F5
:10104000040B43F8040BE7E743F8041BE9E700BF90
:1010500000ED00E000000008C800002008000020AB
:101060003C11000800000320FC1100087709032050
:10107000C80000208012002008B5FFF779FB08B1F6
:10108000FFF700FC30BFFDE770B50D4B0D4C00269F
:101090001D1BB6EBA50F09D100F028F80A4C0B4B2D
:1010A00000261D1BB6EBA50F05D170BD54F8043BFF
:1010B00098470136EDE754F8043B98470136F1E7CD
:1010C00034110008341100083411000838110008E8
:1010D0000A44914200F1FF3300D1704710B511F876
:1010E000014B03F8014F9142F9D110BDF8B500BF93
:1010F000F8BC08BC9E467047F8B500BFF8BC08BCF9
:101100009E46704720000000B71DC104FFFFFFFF8F
:1011100020010000FFFFFFFF000000006C65742845
:10112000292063616C6C65642066726F6D20495381
:1011300052000000ED020008C5020008410B000843
:10114000410B0008410B0008410B0008410B00084F
:10115000410B0008410B0008410B0008410B00083F
:10116000410B0008410B0008410B0008410B00082F
:10117000410B0008410B0008410B0008410B00081F
:10118000410B0008410B0008410B0008410B00080F
:10119000410B0008410B0008410B0008410B0008FF
:1011A000410B0008410B0008410B0008410B0008EF
:1011B000410B0008410B0008410B0008410B0008DF
:1011C000410B0008410B0008410B0008410B0008CF
:1011D000410B0008410B0008410B0008410B0008BF
:1011E000410B0008410B0008410B0008410B0008AF
:1011F000410B0008410B0008410B000800000000F3
:1012000000000000000000000000000000000000DE
:1012100000000000000000000000000000000000CE
:1012200000000000000000000000000000000000BE
:1012300000000000000000000000000000000000AE
:101B70000000000000000000FFFFFFFFFFFFFFFF6D
:101B8000FFFFFFFFFFFFFFFFFFFFFFFFFFFFFFFF65
:101B9000FFFFFFFFFFFFFFFFFFFFFFFFFFFFFFFF55
:101BA000FFFFFFFFFFFFFFFFFFFFFFFFFFFFFFFF45
:101BB000FFFFFFFFFFFFFFFFFFFFFFFFFFFFFFFF35
:0400000508001001DE
:00000001FF
