:020000040800F2
:1000000000900020890C00082D0800082B0800082B
:1000100000000000000000000000000000000000E0
:100020000000000000000000000000002F08000891
:10003000000000000000000019020008C1070008CD
:100040003108000833080008410500083508000899
:10005000370800086D08000895080008BD0800086A
:100060003908000899090008B1090008D9090008F1
:1000700055080008810A0008DD070008990A0008F1
:10008000B10A0008D90A0008F10A0008090B0008A3
:10009000210B0008390B0008510B0008690B000800
:1000A000810B0008A90B0008C10B0008E90B000830
:1000B000010C0008290C000851080008530800082A
:100200004F50454E300F000000000008670400000A
:0402100000000000EA
:10021800EFF3108372B6EFF309801038F0C044464C
:100228004D4656465F462038F0C01038094A1168D6
:100238000860094A11680868F0C8A046A946B2468D
:10024800BB46F0C880F30988BFF36F8F83F310882B
:1002580002480047CC090020C8090020FDFFFFFF25
:100268000448054B10B5834203D0044B002B00D043
:10027800984710BDA8010020A80100200000000038
:1002880006480749091A8B10C90FC91810B5491033
:1002980003D0044B002B00D0984710BDA8010020C4
:1002A800A80100200000000010B5074C2378002B9F
:1002B80009D1FFF7D5FF054B002B02D0044800E019
:1002C80000BF0123237010BDA8010020000000001A
:1002D800480D0008054B10B5002B03D0044905480C
:1002E80000E000BFFFF7CCFF10BDC04600000000D3
:1002F800AC010020480D000870B5040015000E0080
:1003080000F07CFA6268214B5A61A2681A6122786F
:10031800102A29D0202A29D0082A01D192189A60B7
:10032800227B102A24D0202A25D0082A03D19968B4
:1003380018320A439A60627B9968D2010A43012104
:100348000A439A60BFF34F8F7519AE4216D11868E9
:1003580023695840237D002B05D02378102B11D01A
:10036800202B00D100BA70BD0822D8E70022D6E7BA
:1003780040229968DDE760229968DAE73278013629
:100388001A70E2E740BA80B2EDE7C046003002409A
:100398008023084A5B02C3188018DB02C0021A686F
:1003A800013204D104338342F9D10120704700207F
:1003B800FCE7C04601000100E0220A4BD20219699D
:1003C80008001040114209D15A69002A05DA064A84
:1003D8009A60064A9A605869C00F7047BFF34F8FFA
:1003E800EDE7C0460020024023016745AB89EFCD09
:1003F8000B4B0C4A18691A61E022D20219691142A2
:100408000AD18022596912060A435A61064B1840DC
:10041800431E9841C0B27047BFF34F8FEEE7C04606
:1004280000200240FB430000FA430000204B10B5B7
:100438001B6804009B05DB0D834201D8012010BD19
:10044800FFF7BAFF0028F9D11A4B1B4A1B491A615A
:100458005A690A40FE215A618900E2000A407F2158
:10046800A1428941494249030A430221586902438A
:100478000A435A618022596952020A435A61E022AA
:10048800D2021969114210D102215A698A435A616C
:10049800BFF34F8FFFF7ACFF0028CFD12000FFF745
:1004A80077FF01235840C0B2C9E7BFF34F8FE8E791
:1004B800E075FF1F00200240FB43000007C0FFFF5C
:1004C800094B10B51B6804009B050120DB0DA342F6
:1004D80009D92000FFF75CFF03000020834202D106
:1004E8002000FFF7A3FF10BDE075FF1F80235B020C
:1004F800C018C002401870470068704770B5040003
:100508000D00FFF793FF002813D180235B02E41846
:1005180080231B01E402EE182900200000F01CFCD7
:10052800002806D101350134FF35FF34B542F3D137
:1005380070BD0120FCE7000001220E4B196D11422D
:1005480002D00D49DA650A700222196D114203D0F2
:100558000121DA65094A11700422196D114203D08C
:10056800DA65074B033A1A70C0230421054A5B0079
:10057800D150704700280040C6010020C501002066
:10058800C401002000E100E0F7B52F4F05003B68EB
:100598000E009B050192DB0D834202D80222100057
:1005A800FEBD0021FFF7A2FF802292008418274B8E
:1005B800226800909A42F1D1852362689B009A4292
:1005C800ECD93B689B05DB0D5B1BDB02483B9A4281
:1005D800E4D80323110019401A42DFD10420A5688A
:1005E800FFF784FF04228542D9D18021184A0905E2
:1005F800D56BD36BE0680B43D363164B1B681B05A5
:100608001B0D0D4203D1D16B134D2940D163032239
:100618009842C4D1114862680099FFF76DFE009BAB
:10062800050060681818FFF767FFA842B6D1002ECA
:1006380001D063683360019B002B01D10022AEE733
:10064800019B1D60FAE7C046E075FF1F4F50454EFD
:100658000010024000580140FFFFFFF7700D00082E
:1006680013B504006946042001AAFFF78DFF0300B3
:100678000020834208D16268009B9A4204D1019B02
:10068800E068C01A4342584116BD0000F0B5002189
:10069800032085B0FFF72AFF3C4B026805009A4209
:1006A80012D000243A4B3B4A03A914C30420002269
:1006B800FFF76AFF0021884203D10420FFF716FFE5
:1006C8000100080005B0F0BD806803280CD802249A
:1006D8002800FFF7C5FF002C55D1A0421ED00124E9
:1006E8000320FFF7EDFEDDE72B4B1B689B05DB0DB9
:1006F8009842ECD2002380B202AA03A90393FFF721
:1007080043FF039B041EE3D16A689A42DFD1029B30
:10071800EC68E41A631E9C416400D9E76A46AB683A
:100728006C6801931D4B9288E418E40AA3B2033362
:100738009342B6DA0420FFF7C3FEA4B20028B0D172
:10074800002C05D12800FFF78BFF0028C7D1A8E7A8
:1007580000F05EF8661E019BB6B29819002180B2BF
:10076800FFF7C4FE80220E4F010012013800033447
:1007780000F0DCFA3900A0B2FFF7C0FE002800D074
:100788008FE73400DCE70028A9D1A9E7424F4F548E
:100798000000002052505254E075FF1F4708000027
:1007A800C8010020034903684268886083F3088809
:1007B8001047FEE700ED00E030B5002501240349AD
:1007C8000A684B6812196B410CC130BDD009002072
:1007D800704700001F22064B524210B51A61054BA4
:1007E8001B68002B02D0044A1068984710BDC04609
:1007F800002C0140DC090020D80900208023034A8E
:100808005B01916B0B4393637047C0460010024035
:10081800014B024A1A60704700300040AAAA000043
:100828007047FEE7FEE7FEE7FEE7FEE7FEE7FEE7C6
:1008380010B5034B034A1B681068984710BDC046A3
:10084800D0000020E0090020FEE7FEE710B5034BCA
:10085800034A1B681068984710BDC046A4010020D1
:10086800B40A0020054A064B10B51B681068984763
:10087800044B054A1B681068984710BDB00A002051
:10088800A00100209C010020AC0A0020054A064B6C
:1008980010B51B6810689847044B054A1B68106818
:1008A800984710BDA80A0020980100209401002054
:1008B800A40A00201E4A1F4B10B51B6810689847F1
:1008C8001D4A1E4B1B68106898471D4A1D4B1B6824
:1008D800106898471C4A1D4B1B68106898471C4AAB
:1008E8001C4B1B68106898471B4A1C4B1B681068F8
:1008F80098471B4A1B4B1B68106898471A4A1B4BA2
:100908001B68106898471A4A1A4B1B681068984762
:10091800194A1A4B1B6810689847194A194B1B68E3
:1009280010689847184B194A1B681068984710BDFB
:10093800A00A0020900100209C0A00208C010020C1
:10094800980A002088010020940A002084010020D1
:10095800900A0020800100208C0A00207C010020E1
:10096800880A002078010020840A002074010020F1
:10097800800A0020700100207C0A00206C01002001
:10098800780A00206801002064010020740A002011
:1009980010B5034B034A1B681068984710BDC04642
:1009A80060010020700A0020054A064B10B51B683C
:1009B80010689847044B054A1B681068984710BD93
:1009C8006C0A00205C01002058010020680A002001
:1009D800174A184B10B51B6810689847164A174BEA
:1009E8001B6810689847164A164B1B68106898478A
:1009F800154A164B1B6810689847154A154B1B6813
:100A080010689847144A154B1B6810689847144A91
:100A1800144B1B6810689847134A144B1B681068DE
:100A28009847134B134A1B681068984710BDC04677
:100A3800640A002054010020600A002050010020B0
:100A48005C0A00204C010020580A002048010020C0
:100A5800540A002044010020500A002040010020D0
:100A68004C0A00203C010020480A002038010020E0
:100A780034010020440A002010B5034B034A1B68C8
:100A88001068984710BDC04630010020400A002079
:100A980010B5034B034A1B681068984710BDC04641
:100AA8002C0100203C0A0020054A064B10B51B68A3
:100AB80010689847044B054A1B681068984710BD92
:100AC800380A00202801002024010020340A0020D0
:100AD80010B5034B034A1B681068984710BDC04601
:100AE80020010020300A002010B5034B034A1B6880
:100AF8001068984710BDC0461C0100202C0A002031
:100B080010B5034B034A1B681068984710BDC046D0
:100B180018010020280A002010B5034B034A1B685F
:100B28001068984710BDC04614010020240A002010
:100B380010B5034B034A1B681068984710BDC046A0
:100B480010010020200A002010B5034B034A1B683F
:100B58001068984710BDC0460C0100201C0A0020F0
:100B680010B5034B034A1B681068984710BDC04670
:100B780008010020180A0020054A064B10B51B681A
:100B880010689847044B054A1B681068984710BDC1
:100B9800140A00200401002000010020100A00208F
:100BA80010B5034B034A1B681068984710BDC04630
:100BB800FC0000200C0A0020054A064B10B51B68F3
:100BC80010689847044B054A1B681068984710BD81
:100BD800080A0020F8000020F4000020040A002081
:100BE80010B5034B034A1B681068984710BDC046F0
:100BF800F0000020000A0020054A064B10B51B68CB
:100C080010689847044B054A1B681068984710BD40
:100C1800FC090020EC000020D4000020E40900209A
:100C28000D4A0E4B10B51B68106898470C4A0D4BBF
:100C38001B68106898470C4A0C4B1B68106898474B
:100C48000B4A0C4B1B68106898470B4B0B4A1B68E8
:100C58001068984710BDC046F8090020E800002039
:100C6800F4090020E4000020F0090020E000002042
:100C7800EC090020DC000020D8000020E809002052
:100C88000C4B0D4A10B50D4993600D4A0D4B8B4224
:100C98000BD300210C4B0D4A934209D3FFF798FD63
:100CA80000F020F800F014F8FEE701CA01C3EEE7EF
:100CB80002C3F1E70000000800ED00E0A8010020F1
:100CC800900D000808000020A8010020B80A0020A4
:100CD80010B5FFF7DBFC002801D0FFF763FD30BF3C
:100CE800FDE7000070B500260C4C0D4D641BA410E8
:100CF800A64209D1002600F023F80A4C0A4D641BCD
:100D0800A410A64205D170BDB300EB589847013630
:100D1800EEE7B300EB5898470136F2E7880D000874
:100D2800880D00088C0D0008880D0008002310B5F8
:100D38009A4200D110BDCC5CC4540133F8E70000DE
:100D4800F8B5C046F8BC08BC9E467047F8B5C04622
:100D5800F8BC08BC9E46704701B40248844601BCF2
:100D6800604700BF0900002020000000B71DC10433
:100D7800FFFFFFFF20010000FFFFFFFF0000000052
:100D8800DD020008B1020008C3B270B504000D000E
:100D9800002B41D1214A01339A4380231B059A42F3
:100DA80009D380211E4B49021B689B05DB0D5B188C
:100DB800DB02934230D800F043F800282CD1194BBD
:100DC800194A1A6180225969D2020A435A61EFF31B
:100DD800108172B62200661CFF362D1BA85801C26E
:100DE800B242FBD1E022D2021869104211D15A69ED
:100DF8000E4802405A6181F3108800F019F8002863
:100E08000AD122682B599A4206D10434B442F8D147
:100E180070BDBFF34F8FE7E70120F9E70900002015
:100E2800E075FF1F00200240FB430000FFFFFBFFAF
:100E380001B40248844601BC604700BFF9030008BA
:100E480001B40248844601BC604700BFC1030008E2
:100E580029080008290800082908000829080008A6
:100E68002908000829080008290800082908000896
:100E78002908000829080008290800082908000886
:100E88002908000829080008290800082908000876
:100E98002908000829080008290800082908000866
:100EA8002908000829080008290800082908000856
:100EB8002908000829080008290800082908000846
:100EC8002908000829080008290800082908000836
:100ED8002908000829080008290800082908000826
:100EE8002908000829080008290800082908000816
:100EF8002908000829080008290800082908000806
:100F080029080008290800082908000829080008F5
:100F180029080008290800082908000829080008E5
:100F28002908000829080008FFFFFFFFFFFFFFFF4F
:100F3800FFFFFFFFFFFFFFFFFFFFFFFFFFFFFFFFB9
:100F4800FFFFFFFFFFFFFFFFFFFFFFFFFFFFFFFFA9
:100F5800FFFFFFFFFFFFFFFFFFFFFFFFFFFFFFFF99
:100F6800FFFFFFFFFFFFFFFFFFFFFFFFFFFFFFFF89
:0400000508000C895A
:00000001FF
